:100000006F2030691300000013000000130000008F
:100010001300000013000000130000001300000094
:100020001300000013000000130000001300000084
:08003000130000007300100032
:100038006FF09FFC000000006F10E03C6F10C03CA8
:1000480000000000000000000000000000000000A8
:100058000000000000000000000000000000000098
:100068006F204048000000006F2010620000000070
:100078006F2090616F2050616F2010616F20D060F9
:100088006F2090606F2050606F2010606F20D05FED
:100098006F20905F6F20505F6F20105F6F20D05EE1
:1000A8006F20905E6F00505D6F20105E6F20A07D06
:1000B8006F0030106F20505D6F20105D0000000051
:1000C8000000000000000000000000006F20D05B6E
:1000D8006F20905B6F20505B6F20105B6F20D05AB1
:1000E8006F10A0196F20505A6F20105A6F20D059E6
:1000F8006F2090596F2050596F2010596F20D05899
:100108006F2090586F20806D6F0030036F00104F84
:100118006F2090576F2050576F2010576F20D05680
:1001280000000000000000000000000000000000C7
:080138000000000000000000BF
:10014000397101436EC619A0397141536AC866CA34
:1001500062CC5ECE19A0397101535AD056D252D416
:100160004ED64AD826DA22DC06DE3301614082828E
:1001700041114AC026C222C406C68282B24D410144
:10018000024D924C224CB24B4101024B924A224A00
:10019000B2494101024992442244B2404101828065
:1001A0003D432A876373C3029377F700BDEFADE544
:1001B000937606FF3D8ABA960CC34CC30CC74CC756
:1001C0004107E36BD7FE11E28280B306C3408A0683
:1001D0009702000096966780A6002307B700A30643
:1001E000B7002306B700A305B7002305B700A30493
:1001F000B7002304B700A303B7002303B700A3028B
:10020000B7002302B700A301B7002301B700A30082
:10021000B7002300B700828093F5F50F9396850011
:10022000D58D93960501D58D61B7939627009702DA
:10023000000096968682E78086FA9680C1171D8F09
:100240003E96E374C3F8A5B7EFF29FF2B7B700008C
:1002500083A4C7DEB7B7000003A987DE2A84A6857A
:100260002285EF70C0686342A002B7B7000083A484
:1002700007DFB7B7000003A987DEA6852285EF70E8
:10028000606F634A0500228531B72285CA85EF7009
:1002900070202A84E9B72285CA85EF60D07D2A8440
:1002A000E9BFEFF2FFEC370402401305C4068145B5
:1002B000EF2030591305C4069305C002EF20D05A31
:1002C00085451305C406EF20D057E9B511CDAA879F
:1002D0001307850C9306000094C39107E39CE7FE87
:1002E0002314050C2326D50C8280EFF2DFE6AE89BD
:1002F00029CD2A848344840C034A950C9307100368
:10030000139924000325C50C229963E24705232095
:10031000B900AA854E85EF601076050A2326A40C45
:10032000A304440D850493F4F40F9307100363ECC6
:1003300097022304940C0345940CEF707064AA8513
:100340000325C40CEF70C029AA894E853DBD8325C5
:100350000900EF703014CE8523203901EF60B071B1
:100360002326A40CC1B72304040CF1B7EFF25FDD20
:1003700037BA0000B7BA000037BB0000832CCADFD1
:1003800003ADCADE832D8BDF938B4186B7B90000A6
:100390001384418683C62B0013075005639BE60632
:1003A00013852B00814601472946B305D50083C537
:1003B000050085062E971377F70FE398C6FE83C6D0
:1003C000CB006398E60403C55B0083C64B0003C9FA
:1003D0007B002205558D83C66B00220983C49B00D8
:1003E0003369D90083C68B00A20403C73B00D58CB8
:1003F00042054209C204930620054185135909416B
:10040000C1846305D70863ECE60093061005630C0E
:10041000D702AD0B93870189E39EFBF685B3930664
:100420003005630AD70A93064005E314D7FEEF7040
:10043000D04868C84A85EF70504828CC2685EF70B0
:10044000D04768CCF9B7EF70504783A549DFEF700C
:10045000205BEE85EF70C05A48DC4A85EF70F045AE
:1004600083A549DFEF70C05983258BDFEF704059BA
:1004700028C02685EF70704483A549DFEF7040588F
:1004800083258BDFEF70C05768C061B7EF70F04213
:10049000B7B7000083A547DFEF708056E685EF70A1
:1004A000205628C44A85EF70504183A549DFEF707C
:1004B00020558325CADFEF70A05468C42685EF70ED
:1004C000D03F83A549DFEF70A0538325CADFEF70CB
:1004D000205328C83DBFEF70503E83A549DFEF7021
:1004E0002052EA85EF70C05108D84A85EF70F03C81
:1004F00083A549DFEF70C05083A5CADEEF7040507E
:1005000048D82685EF70703B83A549DF9384C1836B
:10051000EF70004F83A5CADEEF70804E08DC2D33EC
:10052000138681838345060028D02A89138C018491
:10053000B1E585451387818D2300B60088C023204F
:10054000AC009305870C1386818D930700001CC3B4
:100550001107E39CE5FE2314060C2326F60CCA853E
:100560001385818D5933CD312C5468D0EF70807252
:10057000E139054768D42308E40661BD8C40EF707B
:100580006071D93183250C00EF60F04EAA852320DD
:10059000AC0023A02401E9B71387818D9306870C53
:1005A0009387818D1306000010C31107E31CD7FE4B
:1005B0002394070C23A6C70C238C018223AEC1828F
:1005C00023A0C18493874186B0D3F0D3B0D7F0D7AE
:1005D00023880706828093874186F853B8D713078C
:1005E0000000F8D78280EFF2BFB803A4018DB7B73F
:1005F000000083A5C7DD2285EF70602F635DA0003A
:10060000B7B7000083A507DE2285EF70A0369307F9
:10061000000063400504A2852285EF60D045930564
:100620000000AA842285EF70802C37B40000832557
:1006300044DE634205022685EF60F043EF70D0216F
:1006400042054185EF707027832544DEEF70403B03
:10065000AA873E8581B62685EF70C063C5B703C5FE
:10066000418D82803335A000B70700202388A71E64
:100670008280EFF2FFAF7971AA848545114502CAE5
:1006800002CC02CE02D002D202D402D602C602C8E6
:10069000EF20B045854537050200EF20F046914731
:1006A000231AF100371401408D473ECC4C08E14736
:1006B000130504803ECEEF201021A147231AF1003C
:1006C0004C089147130504803ECE37440040EF208C
:1006D000901F0C10B7070C001305044026D03ED421
:1006E00002D223160102EF20F05D93076013231658
:1006F000F10085472307F100680085473EC8EF20D9
:10070000502A05461305044093054042EF20D06768
:10071000854513050440EF2070654561A5BCEFF2E7
:100720003FA539711306C00281454808953C8545AF
:1007300005453704024002C602C8EF2030391305D0
:10074000C406EF20E07CB7440040938744403ECA93
:10075000938761863ECC9307C0023ED09307000882
:100760003ED44C088D671305C4063EDC02CE02D28F
:1007700002D602D802DA02DEEF20300905468945AA
:100780001305C406EF20300D930700122316F10065
:1007900089472307F100680085473EC8EF20702095
:1007A0001305C4068545EF20D009054693050004CE
:1007B00013850440EF20B0602161E9BAEFF25F9B3E
:1007C0002A8413064007814513854186D13A23AA1E
:1007D000018223A80182C9332285613D89376FF0E8
:1007E0007F9BEFF2FF989387418398438546797109
:1007F000938441836302D70219C789466308D704EB
:1008000023A0070039A003C741861377F70F11C350
:1008100094C345616FF01F989387418683C7170083
:100820001307B002138441866373F70081362300F7
:1008300004001306C002814513052400A300040030
:10084000EFF01F96B93C89479CC0E1B7B70700207D
:1008500083C7071F6384070C93870183984393061C
:10086000700C3307E54063FBE60A88C361468145A7
:100870002808EFF0FF92138941860325490313846A
:100880004186EF70D01C2AC4032509032EC6EF70E1
:10089000101C2248B24837B60000AE872A871306DC
:1008A00006E0E1452808EF40504D300889450945EC
:1008B000EF00D010614681452808EFF07F8E834716
:1008C0000907A5C36850EF70901837B600002A8753
:1008D000AE87130646E1E1452808EF40104A30088C
:1008E00085450D45EF00900D614681452808EFF0E4
:1008F0003F8B8347040795CFFD31EF70501537B616
:1009000000002A87AE87130606E3E1452808EF407A
:10091000D046300885451145EF00500A23A0040059
:10092000CDBDB7B50000938505E22808EF80403BB8
:100930007DB7B7B500009385C5E32808EF80403A3E
:10094000C9BF011122CE3744004093054042130530
:100950000440EF20904931CD835704408145C207C0
:10096000C1833EC683574440370402401305C40682
:10097000C207C1833EC6B247EF20A06C1305C40670
:10098000EF20C06E9307C0023385A74013874186CE
:100990001375F50FA300A700034717009306C002C5
:1009A0009387418663F4E600A38007000547238010
:1009B000E700724405617300203037052000EF2006
:1009C000006F0DC537052000EF20206F370502406E
:1009D00081451305C506EF20C0669387418613073E
:1009E000C002A380E70005472380E70073002030A2
:1009F000EFF20FF87971AA848545214502CA02CC2D
:100A000002CE02D002D202D402D602C602C8EF2021
:100A1000D00D854537050400EF20100F93070040E7
:100A2000231AF100371401408D473ECC4C08E147B2
:100A3000130504C03ECEEF200069856793870780C9
:100A4000231AF1004C089147130504C03ECE3754D9
:100A50000040EF2040670C10B7070C00130504801E
:100A600026D03ED402D223160102EF20B0259307F0
:100A700070132316F10085472307F10068008547AE
:100A80003EC8EF20007205461305048093054042DE
:100A9000EF20902F854513050480EF20302D456110
:100AA0006FF04FEFEFF2CFEC39711306C0028145C2
:100AB0004808EFF0EFEE854505453704024002C6D1
:100AC00002C8EF20B00013050403EF206044B754C0
:100AD0000040938744803ECA9387819B3ECC930716
:100AE00000043ED0930700083ED44C088D671305E0
:100AF00004033EDC02CE02D202D602D802DA02DEC3
:100B0000EF20A0500546894513050403EF20A054AB
:100B10009307D0112316F10089472307F1006800DD
:100B200085473EC8EF20E067130504038545EF20A5
:100B3000405105469305000413850480EF203028BA
:100B400021616FF02FE5EFF2AFE22A841306000473
:100B500081451385819BEFF0AFE49387819A2380D1
:100B600007002285239107002392070023830700B3
:100B700023A4070023A60700A53D2D376FF08FE1C2
:100B8000EFF20FDF9387819ADC471307700C011196
:100B9000B307F5401384819A6379F70283476400B1
:100BA00048C402C602C802CA02CC02CE95CF835600
:100BB000440037B60000130686E4D1456800EF40D4
:100BC000D01B700085450545D52B1C44054763891E
:100BD000E704639607228347040093F7F70F91C356
:100BE00018C405616FF00FDB83C7418493F7F70FDB
:100BF00089EBB7B50000938585E56800EF80400E6E
:100C0000C9B783C7518493F7F70F91C7B7B50000F1
:100C1000938585E6DDB7B7B50000938585E7F1BF1D
:100C2000835624008947C206C18263FBD71493858B
:100C3000819B9387819B01461388819B1303300519
:100C400093084007130E1006930E5006130FB003BF
:100C500013170601930F6600418363F7DF0883CF04
:100C6000070063936F0883CF1700639F1F0783CF2D
:100C70002700639BCF0783CF370063971F0783CF7E
:100C800047006393DF0783CF5700639FEF05190782
:100C900042074183B307E800130600026377D700D9
:100CA000850783C8F7FF638DC802B308E8000143D6
:100CB0008147A54E294E637FD70A03C608008508E1
:100CC000130606FD1376F60F63E6CE0AB387C70355
:100CD0000507420741830543B297C207C183E1BFBD
:100CE0000507420741835DBF0506131706014183CF
:100CF0008507E36FD7F481471387F6FF4207130692
:100D000040069308A003418303C305006310C30892
:100D100003C31500631C13078907C207C183330788
:100D2000F8001306000263F7D70005078345F7FFB5
:100D30006385C506C16881450147A54E294EF9184E
:100D40003386B700131F0601135F0F0113F3F50F6E
:100D50006379DF04429603460600130606FD137608
:100D6000F60F63E0CE043307C70385053297E3F936
:100D7000E8FC39A0E30103F80947638FE706ADDF1C
:100D8000054723030400A382E1843DA08507C20731
:100D9000C1838505E3EAE7F6E5B78507C207C183A6
:100DA00059B7E30F03FC4207418385472303F4004F
:100DB0002312E400A38201841306000481451385F5
:100DC000819BEFF0EFBDB704024023110400814581
:100DD0001385040323000400EF20A02693050004DC
:100DE00013850403EF204028854513850403EF2075
:100DF000402589471CC4F5B341677D177DB723247F
:100E00000400C5B3011122CE37540040930540427F
:100E100013050480EF20607D25C183570480814540
:100E2000C207C1833EC6835744803704024013057E
:100E30000403C207C1833EC6B247EF2080201305DA
:100E40000403EF20A022930700043385A740420546
:100E50001387819A41812311A70003572700930626
:100E600000049387819A63F4E60023910700054705
:100E70002382E1842380E7007244056173002030FF
:100E800013050020EF20A0221DC513050020EF2030
:100E9000C02237050240814513050503EF20601A83
:100EA0009387819A130700042391E7000547238263
:100EB000E1842380E70073002030EFF26FAB05651B
:100EC000797185451305458002CA02CC02CE02D055
:100ED00002D202D402D602C402C623180100EF20B7
:100EE000C04085450545EF20404093070010231A78
:100EF000F10037150140E1473ECE4C088D47130500
:100F000005803ECCEF20201C37340140930770044D
:100F10003EC42C0093073006130504C03EC6EF20E4
:100F20008040C167938707070C10130504C03ED0AB
:100F30002313010223140102EF206046130504C0AD
:100F40008545EF200050130504C08145EF20A052D5
:100F5000130504C08545EF2020508545130504C0C6
:100F6000EF20604C45616FF0EFA2EFF26FA09307A6
:100F700040069305400663E3A700AA85C2053735FE
:100F80000140C181130505C0EF2000506FF08FA014
:100F9000EFF20F9E411185452145EF200035D147E5
:100FA000371401403EC68D473EC44C0093070004F1
:100FB000130504C02312F100EF20E010930700088E
:100FC0004C00130504C02312F100EF20C00F1305DD
:100FD00004C0054693050004EF20001B0546930559
:100FE0000008130504C0EF20201A41016FF08F9A0A
:100FF000EFF20F9837140140130504C0054693051E
:101000000008EF206018130504C00546930500048E
:10101000EF208017130504C0014693050008EF2058
:10102000A016014693050004130504C0EF20C01567
:101030006FF04F96EFF2CF9337140140130504C0C1
:10104000014693050008EF202014130504C005464F
:1010500093050004EF20401305469305000813058F
:1010600004C0EF2060126FF0EF92EFF2CF8EB71452
:1010700001402A8A0144930A0008138904C0A14947
:1010800033D68A4033764601930500084A85EF201F
:10109000A00F0546930500044A85EF20E00E0146A7
:1010A000930500044A850504EF20000EE31A34FD81
:1010B000138504C0054693050004EF20E00C0146AB
:1010C00093050004138504C0EF20000C6FF0EF8B34
:1010D000EFF20F8A2A84293F1305800779370145EB
:1010E000693722855937B9376FF0CF8AEFF24F88C9
:1010F0002A84FD3D130580078D3F13050004B53795
:101100002285A537053F6FF0EF88EFF26F861365F4
:10111000050B2E84753F13554400136505014D3FA3
:101120001375F40075376FF0EF86EFF26F840144AA
:10113000214981452285D13F930400080145FD14D2
:101140007537EDFC05041374F40FE31424FF6FF0FE
:101150006F84EFF24F809304F5079389F5018604BD
:101160008E0932892D6493F4F40F93F9F90F930AE1
:1011700084E8CE8526851209493FCA9A214A13047C
:1011800084E803C50AE07D1A137AFA0F8537850AC9
:10119000E3190AFE13851400CE851375F50F1309A4
:1011A00009E0A5374A94A14403458400FD1493F453
:1011B000F40F2D3F0504EDF86FE03FFDEFE2BFF9BE
:1011C0002A89AE89B2840144B3878400038607006C
:1011D00019E26FE09FFBB305340193F5F50F4A85E3
:1011E0000504853F1374F40FC5B7EFE27FF81305CC
:1011F0002003EF202046693B1305E00AD13D13058B
:10120000500DF93513050008E1351305800AC9357D
:101210001305F003753D1305300D5D3D01454D3D52
:101220001305000475351305100A5D351305800C90
:1012300045351305A00D693D4945593D1305100875
:10124000413D1305F00C69351305900D513513051B
:10125000100FBD3D1305B00DA53D130500038D3DD9
:101260001305400AB5351305600A9D351305D008EE
:1012700085355145B13D1305F00A993D7D356FE047
:101280007FF1894537050040EF20202119CD370532
:101290000040EF20C01F2395A184054789453705ED
:1012A00000402396E184EF2000219145370500405E
:1012B000EF20A01E11CD37050040EF20A01D239484
:1012C000A18491453705004023960184EF20A01E9C
:1012D000854537050040EF20401C15C103D7C18468
:1012E00085476319F7009387618403D707000507D3
:1012F0002390E700854537050040EF20C01B7300B1
:101300002030EFE2FFE679718545114502CA02CC33
:1013100002CE02D002D202D402D602C402C62318E0
:101320000100EF10907C85450945EF10F07D854563
:101330000545EF10907B93070004231AF100371541
:101340000140E1473ECE4C088D47130505803ECC59
:10135000EF10705793077004370400403EC4956740
:101360009387F7E12C00130504403EC6EF10B07BD5
:10137000C167938707063ED00C109307C05D130525
:1013800004402313F10223140102EF20400113054E
:1013900004408545EF20E00A130504408145EF2015
:1013A000800D130504408545EF20000B854513058E
:1013B0000440EF20400745616FE0DFDDEFE25FDBD7
:1013C000130730FD930730FD6343E500AA8793962A
:1013D0000701C1861307D0026354D7009307D002D8
:1013E00093950701C1859307401FB385F5029307C5
:1013F000D0023705004013050540B3C5F5029385BB
:10140000C55DC205C181EF2020086FE0BFD801A0F3
:10141000B707EFBE37E700E0938707083CC701A096
:10142000EFE21FD5930500002A84EF60404CB7B768
:10143000000083A547DE634B05002285EF50B063B3
:10144000EF609041420541856FE0DFD42285EF6077
:101450007004FDB7EFE2DFD19307400663E0A70217
:101460009307F5FF93F7F70F130740026364F70044
:1014700013056002EFF07FAF6FE0DFD11305400688
:10148000D5BFEFE2FFCE91C583D7E5023E95420579
:101490004185130630FD03D7E184AA879386E18452
:1014A0006354C500930730FD1396070141869305E9
:1014B000D00263D4C5009307D002998F3E85C2073E
:1014C000C187615663D3C700615513160501418674
:1014D000A14763D3C70021453A9542054185239032
:1014E000A600E93D6FE01FCBEFE21FC68347150062
:1014F0008329450199E723A035011C4D1CC26FE0EB
:101500003FC837BA00002A842E89085583254A4BE4
:10151000B284EF60E04ECE85AA8BEF50D055AA8AF8
:1015200083254A4B4854032B8401EF60604D2A8485
:10153000AA855A85EF5030542A8ADE854E85EF60A1
:101540006075AA89A2855A85EF60C0742A84D68501
:101550005685EF60E04A2A8BD2855285EF60404A7B
:10156000AA855A85EF5030512A8BCE854E85EF6083
:101570002049AA8BA2852285EF608048AA855E85D6
:10158000EF50704FAA855A85EF60C03E6357050043
:101590002320590123A044019DB72320390180C095
:1015A000B9BFEFE2FFBC41119307000070002C00AF
:1015B0003EC43EC6153FA2452E85EF606044B2454D
:1015C0002A842E85EF60C043AA852285EF50B04A59
:1015D000EF20202241016FE0FFBB19E50145828029
:1015E000014541016FE09FB9F5D9EFE27FB52E8447
:1015F00041112A8A1306800381452285EFE05FBAF4
:10160000B7B7000003ABC749B7B7000083ABC7DE6D
:10161000856DB71A00208149930470F9938D0DC828
:101620001307B00D938A8A9E930CA006A68763D6F3
:10163000040093878416C207C1878A07D29783C69E
:101640003700B5CA03DC07009307CCF9C207C18392
:1016500063E3FD06636937072685EF601026DA85A8
:101660002AC4EF60E039DE85EF509077A2471399E6
:10167000490056992324F9002A8D23168901628591
:10168000EF6010302A8C6A85EF20600EAA85628593
:10169000EF6000372320A9006A85EF202005AA8586
:1016A00085096285EF60C035C2092322A90093D95C
:1016B00009011307B00D8504C204C184E39894F7AF
:1016C0008547E3FF37F11385819F1306006081454D
:1016D000EFE01FAD37B700008327074A37B7000098
:1016E000138B819F3EC68327474A37B70000832D5F
:1016F000874A938C819F8144014A938A819F37BC9A
:1017000000003EC48546371900201387140023913A
:10171000DC0092049306899EB6948C40D040420728
:1017200041831319470023A2BC0023A4CC0023AAA1
:10173000BC0023ACBC0023AECC0023A0CC02369965
:10174000BA8463F43405832509FF03250900EF609B
:101750006054AA8B832549FF03254900EF6080531D
:101760002A8DDE855E85EF60A029AA8BEA856A85D1
:10177000EF600029AA855E85EF50F02FEF2060070B
:10178000B245EF60C016635BA01C03D52C00EF6070
:10179000301F2A89AA8503A54C00EF507064AA8BDC
:1017A00023A6AC0003A58C00CA85EF5070632A897C
:1017B000DE8523A8AC005E85EF608024AA8BCA85F5
:1017C0004A85EF60E023AA855E85EF50D02AEF209E
:1017D000400223A4AC0283A50C0103A5CC0037B9B9
:1017E0000000EF20E000B7B7000083A5C7DEEF6080
:1017F00020218325C949EF50B05E83A54C0123A663
:10180000AC0203A58C01EF60E048AA8B83A5CC0154
:1018100003A50C02EF6000482A8DDE855E85EF602F
:10182000201EAA8BEA856A85EF60801DAA855E85E9
:10183000EF507024EF10F07BAA8B23A2AC02A245DC
:1018400003A50C01EF60A00A634AA018050A137AE9
:10185000FA0F63F8340113070002938C0C03E313AF
:10186000EAEAB7BC000083AB8C49DA8981447D5D2C
:1018700083C7090099CB83AD8902DE856E85EF6051
:10188000600F63540500268DEE8B850493F7F40FEB
:1018900093890903E3EE47FDFD57E303FDD4930469
:1018A0000003B3049D02D694B1C0130660038145C2
:1018B00013052400EFE0DF8E85472310F4009848DD
:1018C000DC449306000018C418C818CC98545CC0B7
:1018D0005CC458CCD8545CC854D018D037B700007A
:1018E0000327C74A14D414D858D45CD883AC8C4985
:1018F000814BFD596389AB0583470B00A9C7CC44D5
:101900000325CB00EF600039AA8D8C4803250B011D
:10191000EF604038EE852AC46E85EF60600EA24706
:10192000AA8DBE853E85EF60A00DAA856E85EF501D
:101930009014EF10106CE685AA8DEF60A00363543D
:101940000500EE8CDE89850B93F7FB0F130B0B0361
:10195000E3E247FB63DE0908054561B103D72C00CC
:10196000032D090003A54C0005072391EC00EA852F
:10197000EF507010832B490023A2AC0003A58C000C
:10198000DE85EF50500F83A54C0123A4AC006A857F
:10199000EF50507E6354050023AAAC0183A58C014F
:1019A0006A85EF50D0746354A00023ACAC0183A5CA
:1019B000CC015E85EF50107C6354050023AE7C01A2
:1019C00083A50C025E85EF5090726354A00023A0A3
:1019D0007C038504C204C1804109A5B3EE855E8500
:1019E000EF505079E344A0E605472380EC00B9BDF1
:1019F000B7B7000003AB074B6685DA85EF509077E9
:101A0000E34CA0F493070003B389F902CC44CE9AC7
:101A100003A5CA00EF600028AA8C8C4803A50A0120
:101A2000EF604027AA8DE6856685EF50707DAA8914
:101A3000EE856E85EF50D07CAA854E85EF50B003C1
:101A4000EF10305B83A5CA00AA8BC844B7B9000069
:101A5000EF50700283A549DEEF50907A2A8A83A561
:101A60000A018848EF50300183A549DEEF505079D4
:101A7000AA89D2855285EF50B0782A8DCE854E85C1
:101A8000EF501078AA856A85EF50E07EEF1070560F
:101A9000B7B7000083A5C74A2AC45E85EF50906D92
:101AA000E34C05EADA855E85EF507064E346A0EA10
:101AB000DE856685EF50D032AA8CDE856E85EF50CC
:101AC00030322A8D930500006685EF50B06A63447A
:101AD000050A370B0080334BAB01E68D130660031C
:101AE000814513052400EFE0AFEB1307101023101E
:101AF000E400D844A247CE8558C09848528518C4FF
:101B000003A7CA0058C403A70A015CCC232A4401D6
:101B100018C8232C3401EF10B04D8325CCDEEF50D4
:101B2000306E8325C949EF50B02B08D0EE852322B3
:101B30007403232464032326B4035A85EF10504B07
:101B40008325CCDEEF50D06B8325C949EF50502957
:101B500008D8E6855285EF50B06AAA84EA854E859A
:101B6000EF50106AAA852685EF50E070B707008015
:101B70003D8D48D8D5B3B70D0080B3CD9D016A8B9C
:101B8000B1BFEFE2EFDE2A840851EFF07F89AA842B
:101B90000858EFF0FF8895473345F5022695420532
:101BA0004181131705014187635207043305A040A3
:101BB00093170501C1879146014563D7F6020607D1
:101BC0003A85420741879307C0FD6354F700130528
:101BD000C0FD93170501C187130740026354F70046
:101BE00013054002420541856FE0CFDA9147014578
:101BF000E3C7E7FCD5BFEFE20FD6AA84EFF07FF88A
:101C000083C714002A84D5C703A9440083A9C4004C
:101C100003AA04014A85CE858444EF50B055634839
:101C2000A000D287268ABE84CE87CA893E899305C2
:101C300000005285EF50B04B635CA002B7B70000C4
:101C400083A5C7485285EF50F05263530502B7B7DA
:101C5000000083A507494E85EF507049635AA000E4
:101C60004947A2876353E400C9471394070141849D
:101C7000930500002685EF509047635CA002B7B73C
:101C8000000083A5C7482685EF50D04E6353050258
:101C9000B7B7000083A547494A85EF50B04D635A56
:101CA00005003957A28763538700B957139407017A
:101CB000418422856FE06FCDEFE2EFC90329C500B3
:101CC0004041832905010445CA852285EF50904A89
:101CD0006348A000CE87A689BE84CA8722893E8435
:101CE000930500004E85EF5090406355A002B7B7B2
:101CF000000083A5C7484E85EF50D047635C0500C0
:101D0000B7B7000083A507494A85EF50503E854785
:101D1000634BA002930500002685EF50503D6357AA
:101D2000A002B7B7000083A5C7482685EF509044AE
:101D3000635E0500B7B7000083A547492285EF50D1
:101D400070439357F5013E856FE02FC48147E5BF8F
:101D50008347150091E70145828001456FE08FC3FD
:101D6000EFE20FC12A84EFF0DF83B7B7000083A54D
:101D7000874BEF50D037E342A0FE4858B7B700007A
:101D800083A5C74B06050581EF507036E347A0FCDD
:101D90000858EFF0EFE8635605003305A040420510
:101DA0004185A947E3CBA7FA0850EFF06FE76356E8
:101DB00005003305A040420541859947E3CFA7F8C8
:101DC000834714000545D9DB2285EFF0FFEE13357C
:101DD000150069B7EFE2CFB9411170002E842C00D5
:101DE000EFF08FF0B2452245EF109020B7B700001A
:101DF00083A5C7DEEF50D040B7B7000083A5C74921
:101E0000EF50007EEFF0CFE10D473305E502831779
:101E100004004205418563CCA7003307F040BA8730
:101E2000420741876353A700AA87C207C1873E853F
:101E300041016FE02FB6EFE2AFB305663715002022
:101E4000130606DC81451305859EEFE06FB513068A
:101E5000006081451385819FEFE08FB43715002026
:101E60001306805A81451305857AEFE06FB36FE062
:101E70006FB24DC1856713870796938787BB23127F
:101E8000F5009307401F2313F50089679387676266
:101E90002316F5002317F5009307D0022308F50059
:101EA000A147230AF50093070005231CF5009307BB
:101EB0003002231DF5002310F502C9472310E50069
:101EC0002311F5021307006495472311E50023123F
:101ED000F5021307C02B91472314E500231BE500EF
:101EE0002313F502130760048547231EE50023141E
:101EF000F50279479307A002231505002319050071
:101F0000231FE500231505022316F50223170502FA
:101F100023080502828011CDEFE28FA52A841306E3
:101F2000000581451105EFE0AFA7232004006FE015
:101F30006FA682806307054463850544EFE2AFA185
:101F400039713289AE841306800381452A842800C2
:101F5000EFE00FA5B71900201385897AEF00304F05
:101F6000AA8A15CD83D6A4009DCA39571386897ACB
:101F7000CD45BA876356070093078716C207C18706
:101F80008A07B29703C5370011C583D7070099C3E5
:101F900063FAF63C050742074187E31CB7FC13854B
:101FA000897AEF00D04C2A8B01CD2C001385897AD9
:101FB000EFF0AFE22A8A31E1054A639D0A008DA065
:101FC000014A638F0A042C001385897AEFF0EFE051
:101FD0002A8A0DE59389897A83A7495A5848814A04
:101FE0006380E7045CC8834784011307F00F6389AB
:101FF000E7028507230CF40025A0054B1306800398
:102000002C001305C401EF60C04D9389897A230C1D
:10201000040083A7495AD28A232824015CC85A8A1B
:102020001C4011476365F7162D678A07130787471A
:10203000BA979C43828703C5C400EFF0AFC16387A2
:102040000A0683479100A1EFB7B7000083A5C748F0
:102050001255EF5030126354050472459305000089
:102060008399C402EF50B00863470500B3093041BB
:10207000C20993D90941A6854E85EFF08FC08347E9
:102080009100231D34019DC723262401230C040045
:1020900085471CC0232204002314040021A8938533
:1020A000C4022800EFF01FD3AA89F1B7A685014525
:1020B000EFF02FBD21616FE04F8D63870A088347E2
:1020C0009100639207101305C401EFF07FC815CD8E
:1020D0008317A401094723262401230C040018C0F8
:1020E000232204002314F400014903C5C400EFF0C7
:1020F0006FB66353090C81576340F91A8D47334912
:10210000F90242091359094145A8B7B7000083A550
:10211000C7481255EF5010066351050272459305EA
:1021200000000399C402EF50807CE34005FC3309B2
:1021300020414209135909414DBF9385C40228002B
:10214000EFF05FC92A8955B71C4803D76401B3076C
:10215000F94063E5E7041305C401EFF07FBF11CD3B
:102160008317A401094723262401230C040018C067
:10217000232204002314F40035BF03C5C400EFF08C
:102180006FADA6850145EFF0CFAF231D04002326D8
:102190002401230C040023200400EDBD0319A40135
:1021A00003C5E400EFF00FAB6358090081576345A6
:1021B000F90E8D473349F902A6854A85EFF06FACD9
:1021C000231D2401C5BD2800EFF01FAF01C9280061
:1021D000EFF07FA22A8903C5F40011BF2800EFF0B9
:1021E0004FBCB7B7000083A5874BEF5040706358D2
:1021F000A00650008A852800EFF00FAF92450245F7
:10220000EF10005FB7B7000083A5C7DEEF50407F37
:10221000B7B7000083A5C749EF50803CEFF04FA04F
:10222000AA896255EFF0CF9F89473345F5028D4764
:102230000399C4024E953305F50242054185634D6D
:10224000A900B30720413E89C207C18763D3A70015
:102250002A8942091359094103C5E40049BD2800F0
:10226000EFF01FAF83C9F40015C14E85EFF08F9ECC
:102270008317A401094723262401230C040018C056
:10228000232204002314F40001493DB72800EFF095
:102290009F962A894E85A1BD595939BF03C50401AE
:1022A000032AC4008149EFF0EF9A330A49419307AA
:1022B000B02B63E14703638F0A008347910099CBFA
:1022C0002800EFF01F8CAA89635305008149C209D9
:1022D00093D90941A6854E85EFF0AF9A83D7440084
:1022E000231D3401E368FADC834794011307F00FE0
:1022F0006385E7008507A30CF40083C7040399CB2B
:10230000034794016368F70023262401230C04008B
:10231000914741B383D76400E38B07E6232624016A
:10232000230C04008D47B5B35C4403D7640003C598
:10233000C400B307F94063E5E700EFF0AF9181BD5A
:10234000EFF04F91A6850145EFF0AF93231D0400F8
:1023500095B303C5C400EFF0EF8FA6850145EFF0FC
:102360004F9235B503C5C400EFF0CF8EA685014569
:10237000EFF02F911840231D04009147E319F7E077
:1023800015BB8280B7F700E023820700A382070015
:1023900023830700A383070023840700A384070087
:1023A00023850700A38507008280EFD2DFDA138739
:1023B00041800443B757C6419387D7E6B384F402FC
:1023C0000D641304940301119309500237B90000FE
:1023D000A294B387F4023E9400C3EFE01FD537B652
:1023E00000001306064C85450545EFE03FDD93D719
:1023F0000401B3F73703B794EC069384B443B7B63C
:102400000000130740079386864C1306094DD145FB
:102410006800A697B7440F0093840424B3E797029B
:10242000EF30A015700085450945EFE03FD993577F
:102430000401B3F7370337345E021304E482B7B6FE
:102440000000130770029386C64D1306094DD1454F
:102450006800A297B3E79702EF302012700085451D
:102460000D45EFE0BFD505616FD03FD2EFD25FD011
:10247000411137F400E02AC62EC423200400EFF0F7
:102480007FF032453D479377F50F2306F4009357CD
:10249000850093F7F70FA306F4009357050193F710
:1024A000F70F2307F4006181A307A400A24593F767
:1024B000F50F2308F40093D7850093F7F70FA308CF
:1024C000F40093D7050193F7F70F2309F400E18196
:1024D000A309B400B7E700E02386E740056723A01F
:1024E000E710AD471CC041016FD0DFCAEFF09FE994
:1024F000938701859843050798C373002030EFD276
:10250000BFC455710545EF00D048EF001010EF1023
:102510000012EFE01FDF0145EFE05FEAEFE0FF9917
:102520000145EFE09FA4EFE05FCCEFF01FE80A85E4
:10253000EFD0DFD9716513050520EFE0CFE08964A6
:1025400013850458EFE08FA71305C012EF10801019
:10255000652E13054006138B0185EF10A00F372958
:102560000020032A0B00EFF01F8D130509D5EFF0B3
:102570005F90130409D593076002A306F4008967EE
:10258000938767622317F4009307D0022308F400AF
:102590008567138787BB938707962310F400B72AB4
:1025A00000209307A0022312E4002316F402094737
:1025B000854713854AD82314F4022313E402230821
:1025C0000402EFF05F9583A5818023200B009387A1
:1025D000F4F39389018563FBB706938404F4B3D5C0
:1025E00095021385F5FFB335B500FD15096BEFF0C6
:1025F000FFE7814B8544130CF07C130BFB70930CAD
:10260000B05D03A409007521930509D522861385C1
:102610004AD8EFF03F92B307444185EC6360FB0476
:1026200013C51400EFE00F842285EFE08F9B639ABF
:102630000B00EFE0CF8211C563F58C00EFD0BFF93E
:10264000854BE1F02285EFE0AFD365BF01458145C1
:1026500071BFE377FCFC228A8144D9B7EFF0FFD445
:10266000228A854475BFEFD2BFB0370402401305FC
:1026700084058145EF00F01CB72400209305000875
:1026800013058405938484DD23800400EF00D01DAE
:10269000850464D037050200EF003022130484055E
:1026A00085452285EF00F0196FD0DFAEEFD25FAC29
:1026B000EF00507A6FD01FAE31C9EFD2DFA9B74417
:1026C0000140AE892A890144938404809317040150
:1026D000C18363EE3701374401401304048093053E
:1026E00000042285EF00B06F7DD96FD01FAA93053B
:1026F00000082685EF00B06E7DD9B307890083C539
:10270000070026850504EF00F06CC9B78280EFD280
:102710003FA6372400201304C4ED5C487D5599CBB7
:1027200013850182894582971C4C014581C7094563
:10273000829701456FD01FA6B7270020014681462A
:102740009387C7ED05431317060141836364B70000
:102750003685828003A807003307C500034E0700B3
:10276000630B080283D847006377130303D767001E
:1027700005074207418363631701014783D8870038
:10278000630B170183D8670046982300C801239381
:10279000E70005064DBFF956EDBFEFD27F9D372408
:1027A00000201304C4ED5C487D559DCBEFF03FF64F
:1027B0001306005B2313040081451305C401231491
:1027C00004002315040023060400EFD07F9D8547F5
:1027D0002324F45C5C481385C181894582970145B7
:1027E0006FD05F9B797152CE374A014093054042CA
:1027F00013050A8022D626D44AD24ED0EF00F05ECE
:102800003DCDB7040240138584058145372400205F
:10281000EF003003130484DDFC4C0349040093846F
:10282000840593090008B389F9409305000893478C
:10283000190026852300F400EF00100383470400ED
:10284000C20993D909019E078507A297DCC4835763
:102850000A8085452685C207C1833EC683574A80C4
:10286000C207C1833EC6B247EF00A07D638909005D
:10287000131579000505CE852295EFF0FFEB325454
:10288000A25412598259724A456173002030411195
:102890003705020022C626C44AC2EF00500139CDD6
:1028A00037240020130484DD37050200EF00F00018
:1028B0008344040037090240814593C7140013057F
:1028C00089052300F400EF00C077130589059305FF
:1028D0000008EF00607983470400130589058545EA
:1028E0009E078507A2975CC5EF00A075139574003D
:1028F0000505930500082295EFF01FE43244A24439
:102900001249410173002030EFD2FF8437250020A7
:10291000397113061010130A85DD8145130585DD15
:10292000EFD01F8811658545110502C402C602C893
:1029300002CA02CC02CE02D002C002C2EF00F01ADC
:10294000930700202314F100371401408D473EC641
:102950002C00E147130504803EC8EF00C0769309C0
:10296000004091472C0013050480231431013EC818
:10297000EF006075F16737440140938707203ECA36
:102980004C08B7070C00130504803ECE02CC231080
:102990000102EF00303305469305404213050480E1
:1029A000EF00903E9307501305492310F1000A856C
:1029B00085472301F1004AC2EF00A07E1305048081
:1029C0008545EF00B03A1306C00281454808EFD0B4
:1029D0002FFD85450545B704024002C402C6EF003D
:1029E000F00E138584052D23930744803ECA930778
:1029F0001A003ECC930700083ED03ED44C088D67A9
:102A0000138584053EDC02CE02D202D602D802DA59
:102A100002DEE52B05468945138584052D2D930798
:102A2000F01128002314F1004AC623050100EF002D
:102A300040773705020023000A00412513858405ED
:102A40008545012513050480054693050004EF0024
:102A50001037372500201304C5ED1306C05C8145EF
:102A60001305C5EDEFD0CFF3B72700209387874A32
:102A70001CC0B72700009387876B5CC8B72700008E
:102A80009387C76A1306005B81451305C4011CCCFC
:102A900023123401EFD0CFF0130500322324245D3C
:102AA000EF00503BEFF03FBCEFF03FCF21616FD024
:102AB000CFEDEFD26FE9372400201304C4ED996401
:102AC00091499384F49F9306C4011389418203576B
:102AD000840083576400C207C1836388E7160357E5
:102AE00084001C4003564400BA9703C7070083576D
:102AF00084008507C207C1832314F4008357840030
:102B000063E4C700231404008347A400A1E38347C0
:102B1000B4003306F90003460600631EE60085078D
:102B200093F7F70F1947637DF70085472315F400E6
:102B30002306040069BF9307500A6316F700854710
:102B4000A305F40069B7A305040051B78347C40087
:102B50003306F4008507A306E60093F7F70F63E555
:102B6000F9002306F400A5B7034BD40023060400A4
:102B700093571B00B347FB00858BF1C30347E40069
:102B800093771700CDCF8347F40005839E07D98F35
:102B900063C7F40A139A07018347445C135A0A0176
:102BA000834B0401834A1401B5EB85473685130630
:102BB000805A81452302F45CEFD08FDE8327845C4A
:102BC000AA86138727002324E45C85072320F45C6E
:102BD00013978A003367770193576A00E30907EE7A
:102BE0000983E30607EE0356C45B8A070506231E26
:102BF000C45A3306F4000346F60111E60356E45BBB
:102C00000506231FC45AA297239EE70013572B00E3
:102C1000238FE7000547A38FE70055BD93771B007F
:102C2000C5DB36851306805A8145EFD06FD78327E1
:102C3000845CAA86138717002324E45C41BF835772
:102C40006400C207C1832314F4006FD06FD311CD89
:102C5000EFD20FD2B72500201306805A938585EF57
:102C6000EF50300805456FD0EFD20145828001E971
:102C70000145828001451301015B6FD0AFD1EFD2D6
:102C80002FCF130101A5B72500202A841306805AEF
:102C9000938585EF2800EF50D0040357815A93079E
:102CA000F002E3F9E7FC0357A15ADD47E3F4E7FC40
:102CB0000147130670F99305A00693160601C18219
:102CC000B6876356060093878616C207C1838A07B4
:102CD0001306015BB29783C7B7A581C705074207F3
:102CE00041838506139606014186E318B6FCDD474D
:102CF000E3F2E7F81306805A2C002285EF50607E3D
:102D0000054595BFB71702409843B706FFF8411134
:102D10001367170098C3D84337060200758FD8C3CE
:102D20009843B706F7FEFD16758F98C39843B7060C
:102D3000FCFFFD16758F98C3D843B70681FFFD16BB
:102D4000758FD8C337079F0098C702C402C698433F
:102D5000C166558F98C3B7160240130700509C42B6
:102D6000F18F3EC6A24785073EC4B24781E7A2471E
:102D7000E397E7FEB71702409C431397E7006354BD
:102D8000070885473EC632478547631CF706B727C5
:102D900002409843B706C1FFFD161367070198C3A9
:102DA0009843719B98C398431367270098C3B7173C
:102DB0000240D843D8C3D843D8C3D8431367074089
:102DC000D8C3D843758FD8C3D843B7061D00558FD5
:102DD000D8C39843B7060001558F98C398439316FC
:102DE0006700E3DD06FED843B7160240719BD8C3E7
:102DF000D84313672700D8C32147DC42B18BE39E39
:102E0000E7FE4101828002C6BDBFB7160240DC4228
:102E10001146B18B138781806385C7002146638982
:102E2000C702B7177A00938707201CC3B717024061
:102E3000DC43918393F6F700B707002093870700E0
:102E4000B69783C607001C43B3D7D7001CC3828044
:102E5000DC42D042C983BD8B9315F600890763CD50
:102E60000500B746024083A60680C18A99CAB716F4
:102E70007A009386062011A8D4421396E600E35800
:102E800006FEB7163D0093860690B387D70271BF42
:102E900001A097E1FF1F9381E1B5172100201301E5
:102EA0006116179500001305E5FD97D5FF1F938563
:102EB00065151386018363FAC5008322050023A0EC
:102EC000550011059105E3EAC5FE138501839705B9
:102ED00000209385E59D6377B5002320050011054B
:102EE000E36DB5FE930280087390023097D2FFFF26
:102EF0009382C21493E2120073905230EFF09FE07D
:102F000097F2FFFF9382E25F7390123473002030D8
:102F10001C4141677917F98F1CC12320050023222A
:102F2000050023240500B707024023260500138768
:102F300087006317E500D8431367F700D8C3828082
:102F40001387C7016316E500D8431367070FFDB762
:102F5000138707036318E500D8438566938606F058
:102F6000558FE9BF138747046315E500D843BD6655
:102F7000C5BF138787056316E500D843B7060F0062
:102F8000C5B71387C7066316E500D843B706F00038
:102F9000C1BF138707086316E500D843B706000FC3
:102FA000C1B7138787406319E50003A7474013673C
:102FB000F70023A2E74082801387C7416317E5002B
:102FC00003A747401367070FEDB793870743631BBA
:102FD000F500B707024003A747408566938606F0D1
:102FE000558FC1BFB7070240138747446316E500FA
:102FF00003A74740BD66EDB713878745E31DE5FA94
:1030000003A74740B7060F00E1BF1C4161773D07AA
:1030100094517D8F9C45D58F9449D58FD449D58FB8
:10302000944DD58FD44DD58FD451D58F9455D58F00
:10303000D98F1CC1DC455CC19C411CC5DC415CC511
:1030400082801C4189C593E717001CC182804167BB
:103050007917F98FDDBF1C4101C6DD8D0CC182805F
:1030600093C5F5FFFD8DDDBF4CC18280484142050F
:10307000418182809317350063DA0700B707024069
:1030800083A707407D8D3335A0008280B7070240BB
:103090009C43CDBF9317350063D70700B7070240A5
:1030A00023A2A7408280B7070240C8C38280EFD224
:1030B0002F8CEFF03FFC6FD0EF8DEFD26F8BEFF0E6
:1030C0007FFD6FD02F8D9C4513F7070113F8F70094
:1030D00001C7D8413368E80083D5050013F7F50F21
:1030E00039C318418146854E3D4F930F80029302AC
:1030F0008004214E3396DE00B3F8C5006311160339
:103100009398260033131F011343F3FF3377E30033
:10311000B318180133E7E800639FF70550C9850627
:10312000E39AC6FD18C11307F00F6375B704544145
:103130002146854E3D4F930F800293028004414EFD
:10314000B398CE0033F715016392E80213172600F7
:1031500001173313EF001343F3FFB376D300331794
:10316000E800D98E639DF701232A15010506E319AE
:10317000C6FD54C18280E39457FA10C94DB7E39756
:1031800057FE23281501DDB719C20CC982804CC92E
:103190008280B7E700E0370705FAB8C723AAA18401
:1031A000828083A641858547034705006392F60226
:1031B00083471500639DD70283472500920793E755
:1031C00007F8B7E600E093F7F70FBA962380F640CA
:1031D000854693575700B396E600584111CF938721
:1031E00007048A0737E700E0BA9794C38280EDF3BB
:1031F000834725009207F1B737E700E0938707067A
:103200003043C1458A072CC3BA9794C330C3828028
:10321000371702405C439146B18B6385D700A146C6
:103220006386D706B7177A00938707201CC1371625
:1032300002405C4237070020130707019183BD8BD2
:10324000BA9783C607001C41B3D7D7005CC154426C
:10325000A1829D8ABA9683C60600B3D6D70014C54C
:103260005442AD829D8A369703470700B3D7E700E3
:103270005CC558423983937637001387C1803697EF
:1032800003470700B3D7E7021CC982805C4354435D
:10329000C983BD8B1396F6008907634D0600374737
:1032A000024003270780418B19CB37177A00130799
:1032B000072011A858439316E700E3D806FE3717F6
:1032C0003D0013070790B387E7028DB799C53717FD
:1032D00002405C4B5D8D48CB8280B7170240D84BD3
:1032E0001345F5FF798DC8CB828099C53717024009
:1032F0001C4F5D8D08CF8280B7170240984F134551
:10330000F5FF798D88CF828099C5371702405C4FD1
:103310005D8D48CF8280B7170240D84F1345F5FF27
:10332000798DC8CF82808357050037370140130756
:1033300007C0C207C1836300E50237070040630C82
:10334000E500130707406308E5003717004013073F
:1033500007806317E50003D7250093F7F7F8D98FA7
:1033600003D7650093F7F7CFC207C183D98F231026
:10337000F50083D745002316F50283D705002314F3
:10338000F502B7370140938707C06316F50083C77E
:1033900085002318F5028547231AF500828083579C
:1033A000050203D6050003D82500C207C183F99B97
:1033B000C207C1832310F5028357050283564500D7
:1033C00003578501C207C183420741831377C7F8BA
:1033D000518F03D68500F59BC20633660601D18F57
:1033E00037360140130606C0C1826313C50203D6F7
:1033F000A500DD9B03D8E500D18F03D64500ED9BEA
:1034000093F6F6CFD18F03D6C50033660601D18E71
:103410002312D500231CE50003D76500231AE5021B
:103420002310F50282808357050091C593E71700AA
:103430002310F5008280C207C183F99BC207C183B4
:10344000C5BF8357450491C52167D98F2312F50461
:103450008280C607C583DDBF8357050091C593E70A
:1034600007082310F5008280C207C18393F7F7F79E
:10347000C207C183FDB783578501C207C183DD9BA6
:10348000DD8D231CB5008280231AB502828003558E
:1034900045038280035585038280835705010355C8
:1034A000C500ED8F4205418189C76D8D3335A00080
:1034B00082800145828093C5F5FFC205C181231832
:1034C000B5008280EFC2DFCA83560501F577FD178C
:1034D000F58F83D6650003D7C5007971D58F231882
:1034E000F5008356C500FD779387379FF58F83D608
:1034F00045002A842EC6D58F83D68500D58F83D6E6
:10350000A500D58F2316F50083574501C207C18357
:1035100093F7F7CFD98F231AF5006808EFF05FCF44
:10352000B747014093870780B245631FF402A25753
:103530006547B387E7029841930640060A07B3D769
:10354000E70233D7D702B3F7D70212079207938760
:103550002703B3D7D702BD8BD98FC207C1832314EA
:10356000F40045616FC01FC39257D9B781C9835713
:10357000C5000967D98F2316F50082800357C5005F
:10358000F977FD17F98FC5BF13F7F50F8547158339
:10359000B395B7006319F7009307C500984301CEB0
:1035A000D98D8CC38280894693074501E318D7FEE5
:1035B00093070501E5B793C5F5FFF98DDDB783578F
:1035C000450109C6DD8D231AB500828093C5F5FF3C
:1035D000FD8DD5BF93F5F51F2312B50082800355ED
:1035E00005006D8D3335A000828013F7F50F8546F9
:1035F0001583B397B6006313D7020357C500F98F3D
:103600000357050001454207418381CB0545A18150
:10361000B315B5006D8F3335E000828089466315A0
:10362000D70003570501E1BF03574501C9BF83A771
:10363000818037177A0013070720B3D7E70293F783
:10364000F70F238DF1841307803EB387E702239C95
:10365000F1848280B7F700E023A0070003D78185BB
:1036600023820700A3820700238307003305A702F4
:10367000A3830700054798C337F700E05C43E37F67
:10368000F5FE8280EFC23FADB7540040AE8932896B
:10369000014493840480634524014A856FC0FFAED2
:1036A000930500042685EFF09FF37DD9B387890049
:1036B0008385070026850504C205C181EFF09FF1CF
:1036C000D9BF138701811C43B73600209386C68A71
:1036D0003E95636BD500B75600209386068063E560
:1036E000A60008C33E858280FD57EDBF011122CCA4
:1036F000370400809347F4FF3717493F06CEE98F20
:10370000130787FD635DF7023707807F63C9E70012
:10371000AA85EF402058F2406244056182802C0067
:103720000D260D8985476304F5028947B245630B71
:10373000F5020DC522450546EF10C012E9BF9305FD
:103740000000EF000073F240624405618280B245E0
:1037500022450546EF100011218D75BF2245EF006F
:10376000407155BF2245EF00C070218D6DB701112A
:1037700022CC370400809347F4FF3717493F06CE29
:10378000E98F130787FD635DF7023707807F63C901
:10379000E700AA85EF400050F24062440561828054
:1037A0002C0045240D8985476305F5028947B245FC
:1037B000630AF5021DC12245EF00A06B218DE9BF10
:1037C000014693050000EF10E009F24062440561F4
:1037D0008280B2452245712DC1B722450546EF10C2
:1037E00060085DBF22450546EF10C007218D6DB70B
:1037F0006DA8397122DC26DA4AD806DE2A84612BCC
:10380000938741818443FD572A89638EF400A28502
:103810002285EF40B00001E9930500002285EF40CA
:10382000601563490500F25062544A85D2544259EA
:103830002161828085473EC4228597870000938757
:10384000A7CA3EC602D4EF4090202ACC2ECE2AC86A
:103850002ECA9DCC014681463285B685EF20E046D2
:103860002AD02ED289476397F402EF40104793077E
:1038700010021CC1A2578DE702559255EF40F02768
:10388000F25062542A894A85D25442592161828079
:1038900002D002D22800EF10A00F61D9A257E9DFB1
:1038A000EF40B043A2571CC1C1BFB7070080411110
:1038B00093C7F7FF2E8706C622C4FD8D3706807F8B
:1038C000AA866340B604E98F2A83634CF602B708E0
:1038D000803F6302170F1354E74109887D81498CAB
:1038E0008DEB89476300F40A8D473685631FF4002A
:1038F000B240224497870000938707C08843410164
:103900008280B6853A85EF301017B24022444101DB
:103910008280ADC1638EC506638EC7048D8FDD873F
:103920001306C003634EF60863580700130640FCF5
:103930001305000063CAC700BA853685EF30504AC8
:10394000EF10C02DEF10000585476306F40C894782
:103950006303F40A5DD8978700009387A7BB8C4365
:10396000EF307011978700009387C7B88C43EF4002
:10397000603261BF634B030697870000938747B7A8
:10398000884361B7978700009387C7B68843B5BF60
:10399000638EB7028947E307F4FE8D47E30AF4F428
:1039A000854713050000E312F4F69787000093871C
:1039B000E7B4884399BF2244B24041016F00907D33
:1039C000978700009387C7B28843BDBF89476304C8
:1039D000F4068D47630BF40485476302F40497876C
:1039E00000009387A7B288430DB79787000093879D
:1039F00027B1884319BF978700009387A7B18C43ED
:103A0000EF307007978700009387C7AEAA85884379
:103A1000EF404028DDBDB70700803D8DFDB597879D
:103A200000009387E7AE8843CDB597870000938762
:103A3000A7AD8843D9BD978700009387A7AC88437B
:103A4000E9B5397122DC3717493F1314150006DE3A
:103A500026DA4AD84ED652D456D25AD05ECE62CC4E
:103A60000580130787FD6352871237D71640130767
:103A700037BEAA89AE846341870697870000938783
:103A8000A7A941988C43635EA02AEF40A020B717F6
:103A9000C93F938707FD2A896306F4101784000045
:103AA0001304C4A70C40854BEF40C01EAA8588C0F4
:103AB0004A85EF40201E0C40EF40C01DC8C0F250A8
:103AC00062545E85D2544259B259225A925A025BCC
:103AD000F24B624C2161828037174943130707F884
:103AE0006351870E3707807F6357E40A1359744187
:103AF0001309A9F7931779011D8C2285EF40C05552
:103B0000EF40A05BAA87AA8522853EC2178A0000E3
:103B1000130A4AA2EF40001883250A00EF30506EC6
:103B2000AA8AEF406053EF404059AA852A845685FF
:103B300022C4EF40201683250A00EF30706C9305F5
:103B400000002AC6EF30F0548D4609E993050000C5
:103B50002285EF301054B336A00085069787000009
:103B6000938787A509474A86A6854800112BAA8B0B
:103B7000E3D709F49840DC40B7060080358FB58F55
:103B800098C0DCC0B30BA0401DBF9307000088C1E4
:103B9000DCC1814B2DB7AA85EF40C00FC8C088C0DB
:103BA000814B31BF97870000938787978C43178499
:103BB000000013042497854BEF40C00D2A890C4068
:103BC000E5B5EF10A005978700009387E7958C4334
:103BD0002A89EF30F062977700009387E7208C43C3
:103BE000EF306069EF404047AA8BEF40004D978768
:103BF0000000938767928C43AA8AEF307060AA8591
:103C00004A85EF40200997870000938727918C43CE
:103C10002A8B5685EF30D05EFD472A8AAA855A85C1
:103C200063CA7705EF4000079387FBFF13972700D0
:103C30009787000093874790BA979C43137704F0C7
:103C40002A89630CF70223A02401CA855A85EF4014
:103C50006004D285EF400004C8C0E3D209E6B7078C
:103C6000008033C927013D8D23A02401C8C0B30BB8
:103C70007041B1B5EF4000022A89935779015D8404
:103C800093F7F70FB307F4402147E35EF7FA9787FE
:103C900000009387E7888C435685EF3070562A8959
:103CA000AA855A85EF30107FAA852A8C5A85EF3075
:103CB000707ECA85EF30107E9787000093878786D5
:103CC0008C432A895685EF30B053CA85EF30907CFB
:103CD000AA852A8A6285EF30F07B9357750193F7A6
:103CE000F70F1D8CE5472A8963C5870088C0628B62
:103CF000A9BF97870000938767838C435685EF3071
:103D000030502A84AA856285EF30D078AA852A8B24
:103D10006285EF303078A285EF30D077978700004A
:103D2000938707818C432A845685EF30704DA28596
:103D3000EF305076AA852A8A5A85EF30B0752A89E5
:103D400019B7EF304053B717C93F938707FD2A894A
:103D50006304F402177400001304447C0C40FD5B00
:103D6000EF306051AA8588C04A85EF30B0720C40B0
:103D7000EF306050C8C0A1B3977700009387477AAF
:103D80008C43177400001304E479FD5BEF30A04E00
:103D90002A890C40F1B741119317150022C406C6B9
:103DA00085833707807F2A84AA8563F8E708C9C31B
:103DB000AA876342050A698F9356754105E3131775
:103DC00085006345070A014711A03287860793954E
:103DD000870013061700E3DA05FE998E3707800087
:103DE0001306F7FFF18F938616F85D8F13F6160012
:103DF0009317170031EE13D816400145E54681456B
:103E0000370700013386E500FD1663C6C700B3051A
:103E1000E600918F3A9586070583EDF699C305056F
:103E200079990585B705003FAA9593167801B6954F
:103E3000B24022442E8541018280EF30703CA28541
:103E4000EF306043B2402244AA852E854101828032
:103E5000931727004DB7EF30F063AA85EF30407815
:103E6000B2402244AA852E85410182807D57998ED9
:103E7000B5B7011126CA931415004AC84EC606CE1E
:103E800022CC52C456C28580B70700322A89AE8937
:103E900063D8F40CEF40401C630E051CCA854A85AC
:103EA000EF30103697870000938707A38C432A844E
:103EB000EF30103597870000938747A28C43EF308F
:103EC000803BA285EF30D03397870000938747A1CE
:103ED0008C43EF30305CA285EF3090329787000042
:103EE000938747A08C43EF300039A285EF305031E3
:103EF000978700009387479F8C43EF30B059A28586
:103F0000EF301030978700009387479E8C43EF3047
:103F10008036A285EF30D02E2A8A977700009387CB
:103F2000A7EC8C432285EF30B02DAA84D285228560
:103F3000EF30102D2A84CE854A85EF30702CAA856B
:103F40002285EF303055AA852685EF30B05497771B
:103F500000009387E755AA858843EF30B053F5A05A
:103F6000AA85EF30F029978700009387E7968C4366
:103F70002A84EF30F02897870000938727968C4398
:103F8000EF30602FA285EF30B0279787000093872E
:103F900027958C43EF301050A285EF30702697871D
:103FA0000000938727948C43EF30E02CA285EF30FC
:103FB000302597870000938727938C43EF30904DEF
:103FC000A285EF30F02397870000938727928C43D8
:103FD000EF30602AA285EF30B022B7A7993E9387D1
:103FE00097992A8AE3DB97F2B707483F63C8970699
:103FF000977700009387C74B8843B70700FFBE94AD
:10400000A685EF303049AA8A977700009387C7DDED
:104010008C432285EF30D01EA685EF30B047AA84AE
:10402000D2852285EF30D01D2A84CE854A85EF3097
:10403000301DAA852285EF30F045AA852685EF3010
:104040007045AA855685EF30F044F2406244D24470
:104050004249B249224A924A05618280978700000C
:104060009387078783AA070097870000938787862F
:10407000844359BF97770000938787438843F1B7FC
:104080002171131827003ADA178700001307078AEF
:104090002326311B2320611BB689232E71194297D9
:1040A000232E111A232C811A232A911A2328211B2B
:1040B0002324411B2322511B232C8119232A9119CC
:1040C0002328A1192326B11932DEF1562ACE2ED883
:1040D0003ED0032B0700938BF9FF6341D66E130785
:1040E000D6FF9357F7419D8BBA978D873ECC8507B6
:1040F0008E073EDC6247E256B3077B01330477410B
:104100007257138917000409158F3AC6229963C2A2
:104110000702025A93172400D29713050000634543
:1041200004008843EF30707988C005049104E313DC
:1041300024FF131C2B00634B0B04F24D13992B002F
:104140001C0913044900131C2B003E995C1A041A25
:10415000338A87016E94CA8CEE8A130D000063C106
:104160000B0283A50C0003A50A00910AF11CEF3095
:104170003009AA856A85EF3000102A8DE3938AFE04
:1041800023A0A40191041109E39744FD74181307B7
:104190008CFF369C940036973AD4724713942900CA
:1041A000B2463A94370700407D173AC42147158F2D
:1041B0009307FBFF8A073AD61803BA97DA84930A63
:1041C00001133ED25ACA139D24001C03EA9783AD03
:1041D00007FB63569006A247177700001307477442
:1041E000032B07003389F4000A091777000013072F
:1041F0006734569993090104032A070011A03E89E8
:10420000DA856E85EF30C07FEF301065EF30F06AF1
:10421000D285AA8CEF30C07EAA856E85EF309027BC
:10422000EF3090638325090023A0A9006685EF3055
:104230008004AA8D9307C9FF9109E3922AFD324BAE
:104240006E85DA85EF00B02A977700009387876D37
:104250008C432A89EF30C07AEF00B01C97770000BA
:104260009387876C8C43EF30A079AA854A85EF301D
:1042700070222A89EF30505EAA89EF301064AA8537
:104280004A85EF3030212A8A635560119387F4FF05
:1042900018038A07BA9703A907EC32561D4733075C
:1042A0006741B356C9403396C6003309C94023A0BD
:1042B00027ED3359E940B699634B200F9305000071
:1042C0005285EF30005D631F0516D247138AF4FF55
:1042D000634FFA00A2479800A6978A07BA9701474A
:1042E0009443F117558FE39D87FF6310072C925776
:1042F00083A707EC6396072AA2570547F117D44313
:104300000507EDDE938714003E8BBA94624733892C
:10431000FB00F24D330AF70022478A070A0A3A994E
:1043200002570A09B389FA001C093A9A3E9962C8F1
:1043300003250A00EF3070582322A90063C00B0444
:104340004A8DEE8C130C000021A003250D00711D79
:1043500083A50C00910CEF30A06AAA856285EF203E
:1043600090712A8CE3938CFE23A08901050B110A1E
:1043700091091109E3DE64FB424CB1B5130C000056
:1043800023A08901050B110A91091109E3D264FBED
:10439000E5B7B247639E071C9387F4FF8A071803AB
:1043A000BA9703A907EC13598940E35920F185090D
:1043B000635A9040064B8547631B0B16638EF400CF
:1043C000D400054703AB060093071700910663115D
:1043D0000B163E87E398F4FE32476353E0028547AD
:1043E0006302F73C8947631DF7009387F4FF1803C6
:1043F0008A07BA9703A707EC1377F70323A0E7EC24
:104400008947E31DF9EA977700009387670A884395
:10441000D285EF3030082A8AE3020BEA9777000052
:10442000938707098843B245EF00700CAA8552852F
:10443000EF3050062A8A930500005285EF30604520
:10444000E30505E8E25772575285524BB385E740C2
:10445000EF00F009977700009387C70D80432A8A01
:10446000A285EF30C048634D053A977700009387E7
:10447000274B8C4352851C03B38BA701EF30405868
:10448000EF30903DEF307043A285AA8AEF3040575D
:10449000AA855285EF301000EF30103C138A1400CB
:1044A0001C0323A0ABEC13142A0056853E94EF3076
:1044B000B03AB2472320A4ECA1073EC6977700008C
:1044C000938707FF8843B245EF007002AA8A635FB3
:1044D0000A105257894763C7E720634FE036130538
:1044E000000001EB63050900B70700803D8DC2574E
:1044F00088C38320C11B0324811B13F57900832407
:10450000411B0329011B8329C11A032A811A832A0B
:10451000411A032B011A832BC119032C8119832CF7
:104520004119032D0119832DC1183961828001477A
:1045300014030A07369793060010338B6641232035
:1045400067ED63D597028A07180394003E97338678
:10455000A601B697032707EC9306F00F11A0984326
:104560003387E64098C39107E39BC7FE054BADB583
:1045700097770000938747878C430149EF302037B6
:10458000E34E05D285090949E34690E2977700009A
:10459000938707F28843D285EF30C06F2A8A39BBF0
:1045A000938714003E8BBE8495B3180393172A009B
:1045B000BA97324783A707EC524B61173AC681EF8F
:1045C00093972400E1179400B697F117D4437D1A0E
:1045D0006117E5DE3AC697770000938767ED884359
:1045E000B245EF00C070AA8AE3450AEE13172A000D
:1045F0001C1AB384E7009400977700009387473232
:104600003AC4338DE600268483AC070011A03E8DAA
:1046100003250D007114EF30502AD685EF30403E4F
:1046200048C0E6855685EF30A03D9800AA8A9307DA
:10463000CDFFE31EA7FD930C010EE68A0144634EF5
:104640000B04977700009387672D177D0000130DEB
:104650006D2A268C8843930D0000814B39A0110CE4
:104660006341740303250D00110D83250C00850B98
:10467000EF300039AA856E85EF20F03FAA8DE35018
:104680007BFF23A0BA01181A0504910A9387C4FF7F
:1046900063009702BE84E3560BFA930D000023A03B
:1046A000BA01181A0504910A9387C4FFE31497FE10
:1046B0005257894763C8E702BA876347E010224729
:1046C00013050000B38BEC0099C325B5BE8B83A501
:1046D0000B00EF20503A9387CBFFE3997CFFE30870
:1046E00009E019B552578D47E315F7E063594017B4
:1046F000931A2A001C03D697930C010E1384CAFF49
:1047000003AB07F6669411A03E84832B0400DA8580
:104710005E85EF205036AA84AA855E85EF308057EB
:10472000DA85EF20503548C004C09307C4FF268BBC
:10473000E39C8CFC854763D4471313142A001C03A5
:10474000BE9A711483AA0AF6B3848C0011A0BE84A9
:1047500003AB0400D6855A85EF20F0312A8AAA855A
:104760005A85EF302053D685EF20F030C8C023A003
:1047700044019387C4FFD28AE39BFCFC1104A29CF2
:104780001305000083A50C00F11CEF20D02EE39B45
:1047900094FF8E561E57631F0908C25794C3D8C38F
:1047A00088C781BB9387F4FF18038A07BA9703A7CA
:1047B00007EC1377F70723A0E7EC99B1A1473EDC9C
:1047C00002CC0DBA014B09B9A2471304000022859F
:1047D000B38BFC0011A0BE8B83A50B00EF20B0298A
:1047E0009387CBFFE3997CFF2A840E55A285EF3097
:1047F000604A631B0904C25780C363504003C4115D
:1048000005448C4005049104EF20F026E35B8AFE0A
:1048100063050900B70700803D8DC257C8C3D1B9F1
:1048200052851C033384A701EF3010032320A4EC2E
:10483000268A55B34256B7070080BD8E3D8FA98F9B
:1048400014C258C21CC675B1B70700803D8CC25750
:1048500080C3E34640FB7DBF1304000079B7130516
:10486000000005BF01119317150022CC4EC652C49B
:1048700006CE26CA4AC856C28583370700322A8424
:10488000AE89328A63D6E700EF30007DA28749CD3A
:10489000A2852285EF30C016AA84AA852285EF3032
:1048A000201697770000938727098C432A8926854D
:1048B000EF30001597770000938747088C43EF305F
:1048C000603DA685EF30C0139777000093874707B8
:1048D0008C43EF20501AA685EF30801297770000A6
:1048E000938747068C43EF30E03AA685EF304011BE
:1048F00097770000938747058C43EF20D017AA8A4B
:10490000631E0A02AA852685EF30800F9777000084
:104910009387C7038C43EF30E037CA85EF30400EF2
:10492000A285EF205015AA87F2406244D244424942
:10493000B249224A924A3E8505618280976700000B
:104940009387874A8C434E85EF30800B2A8AD68521
:104950004A85EF30E00AAA855285EF30A033A6855C
:10496000EF30000ACE85EF30E03297770000938772
:10497000E7FD8C43AA844A85EF308008AA85268506
:10498000EF20700FAA852285EF30C030AA8769BF5B
:1049900001458280011122CC1314150026CA4EC68F
:1049A00006CE4AC852C40580B7078050AA84AA8997
:1049B0006346F402B707807F63C78716635CA0185D
:1049C000977700009387C7B29C43F2406244D24479
:1049D0004249B249224A3E8505618280B707E03EDE
:1049E0006355F418B70700316344F4147D59A68564
:1049F0002685EF30E000AA852A8AEF30600097779D
:104A000000009387A7F58C432A84EF20707F977767
:104A100000009387E7F48C43EF20F005A285EF2098
:104A2000307E977700009387E7F38C43EF20B00444
:104A3000A285EF20F07C977700009387E7F28C4304
:104A4000EF207003A285EF20B07B9777000093875B
:104A5000E7F18C43EF203002A285EF20707A977740
:104A600000009387E7F08C43EF20F000D285EF2021
:104A70003079977700009387E7EF8C432A8A228565
:104A8000EF20107897770000938707EF8C43EF3083
:104A90006020A285EF20D07697770000938707EEFD
:104AA0008C43EF30201FA285EF2090759777000090
:104AB000938707ED8C43EF30E01DA285EF20507403
:104AC00097770000938707EC8C43EF30A01CA285FA
:104AD000EF201073AA855285EF20E079A685EF209C
:104AE0003072FD57AA85630DF9060A099777000011
:104AF000938787EACA978C43977700009387C7E824
:104B00003E99EF302019A685EF30C018AA850325FD
:104B10000900EF302018AA87E3D909EA3707008097
:104B2000B347A7005DB5AA85EF20E074AA8771BDE1
:104B3000977700009387C7E18C43EF20C073977786
:104B400000009387E7968C43EF20705AA687E35FB7
:104B5000A0E8A5BD977700009387879A9C43B5B5D9
:104B60002685EF302013AA878DB54D28B707983FCB
:104B7000AA846350F404B707303F6355F408AA854C
:104B8000EF20606F97770000938787928C430149ED
:104B9000EF304010976700009387C7248C432A8426
:104BA0002685EF20406DAA852285EF207023AA84F8
:104BB0003DBDB7071C40635CF4021774000013048A
:104BC00064D90C400949EF30E00C0C402A8A268554
:104BD000EF201063977700009387878D8C43EF2039
:104BE0008069AA855285EF20B01FAA8409B59777FE
:104BF0000000938767D68843A6850D49EF20501E95
:104C0000AA84F5B3177400001304848A0C40054984
:104C1000EF3040082A8A0C402685D1B70605058169
:104C20008280011126CA93141500858022CC13D4EA
:104C300074014AC806CE4EC652C456C2130414F8B4
:104C4000D9472A8963CB87082A8A634D0404B70AA7
:104C500080009384FAFFB3D48440B3F7A400AA89F8
:104C600085CB977700009387A7CE8C43EF20A06079
:104C700093050000EF20B047635CA0006356090075
:104C800033D48A40330A240193C9F4FFB3F94901AC
:104C9000F24062444E85D2444249B249224A924A85
:104CA0000561828097770000938787CA8C43CA8901
:104CB000EF20605C93050000EF207043E35AA0FCF6
:104CC00093090000E35609FCCA89F9D097770000E0
:104CD000938787C883A9070065BFB707807FAA8924
:104CE000E3E8F4FAAA85EF200059AA8955B793178B
:104CF000150085832A87B1C7411106C622C437062D
:104D0000807F63F9C702B376C5002E8485EE97775E
:104D10000000938767C98C43EF20904ED17793872B
:104D200007CB2A876349F4069357754193F7F70F2A
:104D30009D1711A8AA85EF200054B24022444101DA
:104D400082808280DD83A2979306E00F63CCF60019
:104D50006349F002A95663D8D704B1679387073532
:104D600063D2870697770000938787BE8043BA8512
:104D70002285B128A285EF20B048B24022444101EB
:104D80008280B2402244370780807D17798DDE070C
:104D90005D8D4101828097770000938727C18C4306
:104DA000EF20104659BF17770000130767C00C4368
:104DB000370780807D17E507DE07798D5D8DEF2051
:104DC0003044A5BF97770000938747BE45B7B70724
:104DD000008013C7F7FF798DFD8D4D8D8280011105
:104DE00006CE2EC615CD1841AA8705C358417D555C
:104DF00011CB8546631BD70098472300070023A2E9
:104E000007000545F240056182809847B2462300BD
:104E1000D7009847050798C7D8437D17D8C3D5B79B
:104E200005466C00EFE01F86E9BF797122D426D2D7
:104E30004ECE52CC56CA06D64AD05AC82A8AAE8A14
:104E4000328481449309000263440602B3879A00C6
:104E5000838707009DE363D6840263D2E402198C42
:104E600093F726009309000281C719E39309000311
:104E7000858A014985EA228931A88504C1BF058C4C
:104E8000C5B70144F1BFCE8552853AC6EFF03FF574
:104E900032477D19E34920FF228963530400014909
:104EA0003304244163CBE402CA84B3872441D697F8
:104EB00083850700A1E12289634320056353040031
:104EC000014433059400B250225492540259F249DD
:104ED000624AD24A424B45618280B3049740268B96
:104EE0009305000352857D1BEFF07FEFE31A0BFE65
:104EF00026995DBF5285EFF09FEE85047DB7CE8584
:104F00005285EFF0DFED7D1945BF5D71A6C252DC21
:104F100086C6A2C4CAC04EDE56DABA843E8A85E589
:104F2000930700030147D28626862C08231CF10034
:104F3000EFF0BFEFB640264496440649F259625A54
:104F4000D25A616182802A893684C68A91CAA94769
:104F500001446317F60063D50500B305B04005446E
:104F6000A30701029307F102A546130568FC33F776
:104F7000C50263D3E6002A9713070703A38FE7FE52
:104F80009389F7FF33D7C50263FBC50409CCB9C8C1
:104F900013772A0021CB9305D0024A8542C6EFF051
:104FA0001FE43248FD1493774A008DC3930710061F
:104FB000930500034A85631FF802EFF05FE2930553
:104FC00080074A85EFF0BFE10904F9145687D286BD
:104FD0002686CE854A85EFF05FE52295A1BFBA858A
:104FE000CE8771B71307D002A38FE9FE01449389DE
:104FF000E7FF55BFEFF0BFDE93058005D9B71D7100
:10500000CAC8CEC6D6C2DAC03A8986CEA2CCA6CA53
:10501000D2C45EDE62DC66DA6AD86ED633E7C500DB
:10502000BE89AA8A428B8347010621E795CF8D6707
:105030009387D7022314F100230501000147DA8684
:105040004E862C005685EFF05FDEF6406644D6446F
:105050004649B649264A964A064BF25B625CD25CE8
:10506000425DB25D25618280930700032314F10045
:10507000F1B7368AAE84328463000902A947014938
:10508000639CF600635A0600B304B040B337900047
:105090003304C0401D8C0549A30F0100130DF1011D
:1050A000935DFA41A54C138C68FC5286EE862685EA
:1050B000A285EF00B00863D3AC0062951305050329
:1050C000A30FADFE5286EE862685A285930BFDFFCB
:1050D000D1296366B401639A8D0263F84403630DBA
:1050E00009006388090293772B0085C79305D002D6
:1050F0005685EFF0DFCEFD190147DA864E86DE8554
:105100005685EFF09FD24A9589B7AA842E845E8D8A
:1051100069BF9307D002A38FFBFE0149930BEDFFFC
:10512000E1BF5D71A6C2CAC0AA842E892E85B28550
:1051300086C63ACE42CCA2C44EDE52DCB289368A52
:1051400056DA5AD8BE8A5ED662D466D2468C6AD007
:10515000EF10506B2A8BAE8B01468146CE854A8577
:10516000EF10E011724762487D81BA872AC0054777
:10517000E288D286DA855E862685EFF05FE82A8DA2
:105180009305E0022685EFF09FC5050D8147854C0C
:105190000144294763CE57075A85DE85EF105072C8
:1051A0002A86AE864A85CE85EF1040642A89AE896C
:1051B0006685A285EF10D0702A86AE864A85CE8598
:1051C000EF104017EF10106413D6F541318DB3473F
:1051D000B600B305C5403335B5003386C74002C0BD
:1051E000E288D687D286098E094826850547EFF0E2
:1051F0001FE1B64026446A9596440649F259625A20
:10520000D25A425BB25B225C925C025D6161828039
:10521000B3068702850733349703B30C970336949C
:1052200095BF5D715AD837CB0000A2C4A6C2CAC0D0
:105230004EDE52DC56DA5ED662D486C666D2AA89C3
:105240002E893284014A8144930B5002930AB002A2
:10525000294C130B0B9B830509008DE56386090020
:1052600081454E85EFF0BFB7B640264426850649F6
:105270009644F259625AD25A425BB25B225C925C0B
:1052800061618280638875014E85EFF05FB58504AA
:105290000509D1B783071900930C1900639A7701A8
:1052A000930550024E85EFF09FB385046689CDB714
:1052B000D5D76387570563C8FA00130730026384A4
:1052C000E704814705A01307D002638AE7001307AC
:1052D0000003E398E7FE930C2900894721A0930C73
:1052E0002900854703870C006303570563C1EA0261
:1052F00093063002630BD70266890145A54535A8A0
:10530000930C29007DBF930C29009147E1BF9306C0
:10531000D0026309D70093060003E31FD7FC93E78D
:10532000270031A0850C8547C1BF93E74700850C56
:10533000E1B7330585030509369503070900930690
:1053400007FD13F6F60FE3F6C5FE1306E0029946D5
:10535000631EC70005098146254603070900130798
:1053600007FD9375F70F6375B602368A03070900C8
:105370001306A0066309C70A6341E6021306C004C8
:105380006303C70A130680066308C70801461DA801
:10539000B38686030509BA96C9B7130640076304A6
:1053A000C7081306A0076300C7089305C006014697
:1053B000631AB700830519000D466394E5000509DB
:1053C0001146050903070900930500061308100696
:1053D00063C4E500130810049305700663C2E50674
:1053E000930550066359B7169305700463CFE50221
:1053F000130650046351C71693063004E31AD7E826
:105400001840930C4400A30E0100230EE100BE8659
:1054100001472A866C0871A0830519000146E393B1
:10542000E5FA090945B7050995B793063006E3097A
:10543000D7FC63CEE606930680056303D70289BDD9
:10544000930630076306D70463CDE6029306F006A1
:10545000630BD70C9306000793E74700E31AD7E2E4
:105460001147631BE60A1D04137784FF0C43504366
:1054700013048700C28802C03E880147AA87C1463C
:10548000B9A0930650076303D7069306800775B744
:105490001840930C4400DA8511C3BA855287BE8642
:1054A0002A864E85EFF07F98AA946684D5B311477B
:1054B0006314E6021D04137784FF0C435043130466
:1054C0008700C28802C03E880547AA87A9464E8544
:1054D000EFF0FFB2AA946DBB0C40D28811042A876A
:1054E000854629464E85EFF05FA2EDB71147631F51
:1054F000E6001D04137784FF0C4350431304870018
:10550000C28802C03E880147AA87C9B70C40D2882A
:1055100011042A878146F1B70C40D28811042A87EA
:1055200081464146C1B711476310E6021D04137757
:1055300084FF0C43504313048700C28802C03E8896
:105540000147AA87A14661B70C40D28811042A8777
:105550008146214641BF1D04137684FF1304860053
:105560000C4250423307D540C2887D173E884E8595
:10557000B687A946EFF0FFBAB1BF397132833EDA80
:105580002EC42AC67010854748009A8506CE36D6A6
:105590003AD842DC46DE3EC232C0EFF09FC8F2404D
:1055A00021618280B687B2882A832E88639D061483
:1055B00063F9C50A4167636EE61AB70700016363C2
:1055C000F63493568601E147176700001307075327
:1055D000369703470700BA97130700021D8F19CBB0
:1055E0003398E500B357F500B318E60033E8070138
:1055F0003313E50013D608013355C802939608010A
:10560000C182935703013377C802B385A6024207CC
:105610003368F700637AB80046989307F5FF636430
:1056200018016367B8303E853308B8403357C80265
:105630004203135303013378C802B386E6024208DB
:1056400033686800637BD80046989307F7FF63656B
:10565000180179176363D8003E874205598D81454B
:10566000828001E60547B358C702416763EAE80E46
:10567000B707000163ECF82893D68801E147176764
:1056800000001307A747369783460700BE96930787
:105690000002958FE5EB939E08013387154113DFD8
:1056A000080193DE0E018545935703013355E70347
:1056B0003377E703B306D5034207D98F63FAD700E0
:1056C000C6971307F5FF63E4170163E6D7263A850B
:1056D000958F33D7E703420313530301B3F7E7036F
:1056E000B30ED703C207B3E7670063FBD701C697C2
:1056F0009306F7FF63E51701791763E3D701368750
:105700004205598D828063E2D504C16763E2F604E5
:10571000B707000163E4F61E13D786016148976757
:1057200000009387A73DBA9703C70700130E000236
:105730004297330EEE40631A0E0C63EDB61C333500
:10574000C500134515008145828081450145828051
:105750009307F00F63F3D71C13D786002148C1B716
:105760001307F00FC686E37C17F193D68800A14794
:1057700039B71307F00FB286E378C7E49356860073
:10578000A14799B5B398F80033D6D50013DF0801C7
:10579000335EE6033397F500B356D500558F939EDD
:1057A000080193DE0E013313F50093550701B3761C
:1057B000E603B387CE03C206CD8E63FBF600C69622
:1057C0001306FEFF63E4161763F2F616791EC696FB
:1057D0009D8E33D6E60393170701C183B3F6E60324
:1057E0003385CE02139706015D8F637BA700469732
:1057F0009307F6FF636817136376A7127916469727
:1058000093150E01098FD18D45B5B357E600B396B8
:10581000C601DD8E33D3E50013DF0601B357E30382
:10582000939E060193DE0E013398C5013357E500C0
:1058300033680701935808013316C6013373E30335
:10584000B385FE024203B368130163FBB800B69848
:105850001387F7FF63EAD80C63F8B80CF917B6980A
:10586000B388B84033D7E803420813580801B3F8A7
:10587000E8033383EE02C208B3E5080163FB650069
:10588000B6951308F7FF63EDD50863FB6508791734
:10589000B695C207416FD98F1307FFFFB3F6E70034
:1058A00093D80701718F4182B38EE602B3856540BC
:1058B000B386C60213D80E013387E802BA96C296A1
:1058C0003386C80263F3E6007A9693D806014696BB
:1058D00063E2C5026385C5003E85814582804167DC
:1058E0007D17F98EC206B3FEEE003315C501F6969C
:1058F000E374D5FE1385F7FF8145828013D7060137
:10590000414831BD93560601C1477DB993D6080180
:10591000C147B5B38145054582803687014801B549
:10592000428785BF3E86E9BDBA871DBF328E4DB521
:1059300079154698D5B97915C69759BBB687328877
:105940002A832E872E8E6393061463F1C50A41675E
:105950006378E61A1307F00FB2866375C700935693
:105960008600A147176700001307471936970347BA
:10597000070093080002BA97B388F840638C0800C8
:10598000B3951501B357F5003318160133EEB70080
:105990003313150113560801B357CE02131508012E
:1059A000418193560301337ECE02B307F502420EC6
:1059B0003367DE006378F70042976365070163731E
:1059C000F70042971D8FB356C70293170301C18397
:1059D0003377C7023305D5024207D98F63ECA70896
:1059E0003385A740335515018145828001E605477F
:1059F0003358C7024167636CE80EB707000163655F
:105A0000F82A93568801E147176700001307070F2C
:105A100036970347070093080002BA97B388F84007
:105A2000639A081E131E0801B38505411356080129
:105A3000135E0E0113570301B3D6C502B3F5C502B9
:105A4000B386C603C2054D8F6377D7004297636460
:105A50000701636AD726158F3355C70242031353D4
:105A600003013377C7023305C5034207B3676700F5
:105A700063F8A700C29763E5070163F3A700C29725
:105A80003385A74033551501814582802A88E3EE8E
:105A9000D5F4C16763E5F604B707000163E2F620B9
:105AA00013D38601E14897670000938727059A97EB
:105AB00003CE070013030002469E3303C34163195C
:105AC000030463E4B6006369C5003308C540958DDF
:105AD000333705013387E5404285BA8582809307D5
