:100000006F10D00F13000000130000001300000059
:100010001300000013000000130000001300000094
:100020001300000013000000130000001300000084
:08003000130000007300100032
:100038006FF09FFC000000006F0070576F00505772
:1000480000000000000000000000000000000000A8
:100058000000000000000000000000000000000098
:100068006F103009000000006F10B0080000000099
:100078006F1030086F10F0076F10B0076F1070071F
:100088006F1030076F10F0066F10B0066F10700613
:100098006F1030066F10F0056F10B0056F10700507
:1000A8006F1030056F10F0046F10B0046F107004FB
:1000B8006F1030046F10F0036F10B00300000000E1
:1000C8000000000000000000000000006F10700237
:1000D8006F1030026F10F0016F10B0016F107001D7
:1000E8006F0050396F10F0006F10B0006F10700083
:1000F8006F1030006F10E07F6F10A07F6F10607F6F
:100108006F10207F6F0010706F0030706F00707676
:100118006F10207E6F10E07D6F10A07D6F10607DE6
:1001280000000000000000000000000000000000C7
:080138000000000000000000BF
:10014000397101436EC619A0397141536AC866CA34
:1001500062CC5ECE19A0397101535AD056D252D416
:100160004ED64AD826DA22DC06DE3301614082828E
:1001700041114AC026C222C406C68282B24D410144
:10018000024D924C224CB24B4101024B924A224A00
:10019000B2494101024992442244B2404101828065
:1001A0003D432A876373C3029377F700BDEFADE544
:1001B000937606FF3D8ABA960CC34CC30CC74CC756
:1001C0004107E36BD7FE11E28280B306C3408A0683
:1001D0009702000096966780A6002307B700A30643
:1001E000B7002306B700A305B7002305B700A30493
:1001F000B7002304B700A303B7002303B700A3028B
:10020000B7002302B700A301B7002301B700A30082
:10021000B7002300B700828093F5F50F9396850011
:10022000D58D93960501D58D61B7939627009702DA
:10023000000096968682E78086FA9680C1171D8F09
:100240003E96E374C3F8A5B7EFF29FF279712A895D
:100250008545114502CA02CC02CE02D002D202D498
:1002600002D602C602C8EF10F032854537050200FB
:10027000EF1030349147231AF100371401408D47B5
:100280003ECC4C08E147130504803ECEEF1030050C
:10029000A14491474C0813050480231A9100374468
:1002A00000403ECEEF10B003B7070C000C10130552
:1002B00004403ED44AD002D223160102EF10D07D72
:1002C00005469305404213050440EF20200993079B
:1002D00060132316F100680085473EC8230791008C
:1002E000EF10D016854513050440EF2060054561E9
:1002F00055B5EFF2FFE779711306C002814548005A
:10030000453585450545EF10102737040240130594
:10031000C406EF108066930700083ECCB744004047
:100320008D673ED4938744403EC29387A1843EC4E8
:100330004C009307C0021305C4063EC802CA02CE91
:1003400002D002D202D602C6EF10C0721305C40654
:100350008545EF10A07505469305000413850440FC
:10036000EF20200345613DB5EFF29FDD9387818447
:1003700083C717005D7102DE82C082C282C482C65A
:100380001307B002637EF704B75A000083A9CAAD11
:10039000B7570000375A000083AB07AE832C4AAE34
:1003A00093848184138BC402138481844E8C4E8D7C
:1003B0000347240002DE82C082C282C482C6930741
:1003C0005005631FF7008347340013071005638B44
:1003D000E70013073005638FE7062D04E31A64FD79
:1003E000616169BB13850182214693054400EF20BA
:1003F000F07113890182A68D03150900910D090979
:10040000EF20F04FCE85EF20006EDE85EF20A06D4F
:1004100023ACAD0293874185E390FDFEA840EF2019
:10042000705A2AD0C85C2ED2EF20D0592ACCE8408E
:100430002ECEEF203059025892586247F247375675
:1004400000002AC02EC2130686AED1456818EF30D0
:10045000200E61B72146930544004818EF20106B29
:1004600003455103834741030347810322055D8D03
:1004700083466103420541853AD036D6EF203048A5
:10048000E285EF204066E685EF20E065834D71034D
:10049000B25688D82ACC13958D00558D42054185DA
:1004A000EF20F045EA85EF20006483254AAE03493A
:1004B0009103EF2040630257AA8DC8D81315890015
:1004C000598D42054185EF20904383A5CAADEF20A9
:1004D000806183254AAEEF2000612A8988DC6E8521
:1004E000EF20504EE2472AD02ED23E85EF20904D8D
:1004F0002ACC4A852ECEEF20F04C02589258624703
:10050000F247375600002AC02EC2130686AED145E8
:100510006818EF30E001701885450945692375BDFD
:10052000EFF21FC51306800281459D39A5B1EFF298
:100530009FC2834405028347150221472A84AE895E
:1005400013992400639FE702B30725018C434851A8
:10055000EF20700248D04C502299232039014E855B
:10056000EF10B0762A8948D08504034514029D888F
:1005700023009402EF20B038AA854A85EF20802B13
:1005800029B18507A300F502F9B7EFF27FBE7971B3
:10059000AA848545214502CA02CC02CE02D002D2ED
:1005A00002D402D602C602C8EF10C07E85453705C8
:1005B0000400EF10100093070040231AF1003714D5
:1005C00001408D473ECC4C08E147130504C03ECEA8
:1005D000EF10E050856793870780231AF1004C08DD
:1005E0009147130504C03ECE37540040EF10204F12
:1005F0000C10B7070C001305048026D03ED402D29D
:1006000023160102EF105049930770132316F100CF
:1006100085472307F100680085473EC8EF10006357
:1006200005461305048093054042EF10305385457D
:1006300013050480EF10D0504561A9BEEFF25FB3FF
:1006400039711306C00281454808993E8545054524
:100650003704024002C602C8EF10E071130504031C
:10066000EF10A031B75400408D673EDC9387448083
:100670003ECA130700089387818A4C0813050403B8
:100680003AD43AD03ECC02D202D602D802DA02DE06
:1006900002CEEF10203E0546894513050403EF10F6
:1006A00020429307F0112316F10089472307F10038
:1006B000680085473EC8EF1060591305040385455F
:1006C000EF10C03E05469305000413850480EF102B
:1006D000504C2161C1B4EFF2BFA951712A841306B5
:1006E000400C814528006D3C8547BEC78947BEC97F
:1006F0008D47BECB9147BECD9547BECF9947BED162
:100700009D47BED3A147BED52547930704FDBAD761
:1007100093F7F70F01456367F7000A049C193E94AD
:10072000032584F16D61BDB4634A060463D8B60441
:1007300063C6C604EFF2DFA3411102C002C202C4C5
:1007400023160100230701001376F60F0147B307B4
:10075000C70093F7F70F63D8F6000A86894511455D
:100760009926410105BCAA9783C707000C08BA95D2
:1007700005072388F5FE1377F70FD1BF8280EFF2CC
:100780003F9F2A8903459501B9372A840345A9016A
:1007900099379307803E3304F402930740063305EC
:1007A000F5022A940345B901420441802D37AA84F9
:1007B0000345C9010D37A947B387F40222953E9539
:1007C00042054181C1BAEFF2BF9A0565797185454D
:1007D0001305458002CA02CC02CE02D002D202D456
:1007E00002D602C402C623180100EF10A05A8545A4
:1007F0000545EF10205A93070010231AF100371512
:100800000140E1473ECE4C088D47130505803ECCA4
:10081000EF10E02C37340140930770043EC42C00E5
:1008200093073006130504C03EC6EF10406BC16746
:10083000938707073ED00C1093076004130504C08C
:100840002313F10223140102EF10E070130504C01A
:100850008545EF10807A130504C08145EF10807E36
:10086000130504C08545EF10007C8545130504C0C1
:10087000EF10E07645616FF0FF91EFF27F8F41114D
:1008800085452145EF100051D147371401403EC640
:100890008D473EC44C0093070004130504C0231287
:1008A000F100EF10C023930700084C00130504C0AB
:1008B0002312F100EF10A022130504C00546930592
:1008C0000004EF10202E054693050008130504C010
:1008D000EF10402D41016FF0FF8BEFF27F8937144D
:1008E0000140130504C0054693050008EF10802B56
:1008F000130504C0054693050004EF10A02A130554
:1009000004C0014693050008EF10C0290146930575
:100910000004130504C0EF10E0286FF0BF87EFF26A
:100920003F8537140140130504C0014693050008B4
:10093000EF104027130504C0054693050004EF108F
:100940006026054693050008130504C0EF108025B6
:100950006FF05F84EFF23F80B71401402A8A0144B0
:10096000930A0008138904C0A14933D68A4033761C
:100970004601930500084A85EF10C02205469305FD
:1009800000044A85EF1000220146930500044A85C1
:100990000504EF102021E31A34FD138504C0054639
:1009A00093050004EF100020014693050004138511
:1009B00004C0EF10201F6FF04FFDEFF26FFB2A8491
:1009C000293F130580077937014569372285593753
:1009D000B9376FF02FFCEFF2AFF92A84FD3D130514
:1009E00080078D3F13050004B5372285A537053FE5
:1009F0006FF04FFAEFF2CFF71365050B2E84753FBA
:100A000013554400136505014D3F1375F400753708
:100A10006FF04FF8EFF2CFF501442149814522856F
:100A2000D13F930400080145FD147537EDFC050422
:100A30001374F40FE31424FF6FF0CFF5EFF2AFF16E
:100A40009304F5079389F50186048E0932891564AC
:100A500093F4F40F93F9F90F930A44AFCE852685EA
:100A60001209493FCA9A214A130444AF03C50AE058
:100A70007D1A137AFA0F8537850AE3190AFE138562
:100A80001400CE851375F50F130909E0A5374A94B4
:100A9000A14403458400FD1493F4F40F2D3F050495
:100AA000EDF86FF08FEEEFF20FEB2A89AE89B2848A
:100AB0000144B38784000386070019E26FF0EFEC6E
:100AC000B305340193F5F50F4A850504853F13748A
:100AD000F40FC5B7EFF2CFE913052003EF10B015FF
:100AE000693B1305E00AD13D1305500DF935130597
:100AF0000008E1351305800AC9351305F003753D7B
:100B00001305300D5D3D01454D3D13050004753560
:100B10001305100A5D351305800C45351305A00D2E
:100B2000693D4945593D13051008413D1305F00C39
:100B300069351305900D51351305100FBD3D130593
:100B4000B00DA53D130500038D3D1305400AB535D5
:100B50001305600A9D351305D00885355145B13D13
:100B60001305F00A993D7D356FF0CFE2EFF24FE0CB
:100B700079718545114502D202D402D602C602C857
:100B8000231A010002CC02CE2310010202C202C4C9
:100B9000EF10402085450545EF10A02137051800CE
:100BA000854513050530EF10800037140140E177CB
:100BB0002312F1024C109147130504803ED6EF003A
:100BC0001072C1472312F1028D44C1474C10130526
:100BD00004803ED626D4EF00907013050480C145F2
:100BE000EF00107C930770043ECCC167FD172C0802
:100BF000370500403ECE23000102EF10402E054491
:100C00006C003705004022C802C6231A0100EF100D
:100C1000E04CB707020091076C003EC63705004064
:100C200089473EC8231A0100EF10404B9307C002CA
:100C300048002312F1002303910022C4EF100001A9
:100C40000546894537050040EF10803C0546914533
:100C500037050040EF10C03B05468545370500408D
:100C6000EF10003BB7070040239807008545370584
:100C70000040EF10C03645616FF0CFD18945370590
:100C80000040EF10C05E19CD37050040EF10605DE9
:100C90002396A18205478945370500402397E182C5
:100CA000EF10A05E914537050040EF10405C11CD7C
:100CB00037050040EF10405B2395A1829145370531
:100CC000004023970182EF10405C854537050040C6
:100CD000EF10E05915C103D7E18285476319F7008A
:100CE0009387818203D7070005072390E700854596
:100CF00037050040EF10605973002030EFF24FC706
:100D000079718545114502CA02CC02CE02D002D2C9
:100D100002D402D602C402C623180100EF108007D5
:100D200085450945EF10E00885450545EF1080062B
:100D300093070004231AF10037150140E1473ECE26
:100D40004C088D47130505803ECCEF0050599307A2
:100D50007004370400403EC495679387F7E12C0088
:100D6000130504403EC6EF108017C167938707063E
:100D70003ED00C109307C05D130504402313F1020D
:100D800023140102EF10201D130504408545EF10C8
:100D9000C026130504408145EF10C02A1305044006
:100DA0008545EF104028854513050440EF102023AA
:100DB00045616FF02FBE01A0B707EFBE37E700E037
:100DC000938707083CC701A0EFF20FB81D710545D6
:100DD000EF00D066EF00D029EF10406305373705EC
:100DE00000409305C05D13050540EF10C026EFF0ED
:100DF0009F9DCD31A53B0808EFF08FF209651305E3
:100E00000558EFF06FC4EFF0CFCE2818EFF04FF198
:100E1000F16413850420EFF04FF737040020EFF062
:100E2000FF812146D145130584229D261385042088
:100E3000EF00300B13052003EF10E05F1305842251
:100E400019263745014013050580B7090020EF003A
:100E5000B00DB75A0000375B0000B75B0000138A83
:100E6000890C37350140F945130505C0EF10A01E68
:100E7000854513864A0E05453D31130584222129F7
:100E80006C0013058422EF00C06E05CDB2479306B7
:100E9000842203A7862103D6470083A606218C431C
:100EA0001305CB0E8144EF206056294C32478357FF
:100EB000870063E4F4123755000013058514EF2012
:100EC000806683C7890C05476316F702EFF0CFC928
:100ED00083258A032818EFF08FE523AAA18237051E
:100EE0000240A3000A0085451305C5062384090CAA
:100EF000EF00D03B13870183034707008546138C1F
:100F00000183E390E6F683D62183130720029384BE
:100F100021836398E60AFD46594693050008138528
:100F2000818AEFF07F801385818AEFF05F859307D8
:100F3000500963E9A700373501408145130505C015
:100F4000EF1060111385818AEFF07F839307800C87
:100F500063F9A70037350140F945130505C0EF10C7
:100F6000800F1385818AEFF09F819307C01263FA87
:100F7000A700370500409305803E13050540EF109C
:100F8000800D1385818AEFF08FFF9307001963FAB4
:100F9000A700370500409305C05D13050540EF101D
:100FA000800B1385818AEFF08FFD9307401F63FA52
:100FB000A700370500409305007D13050540EF109D
:100FC00080093705024085451305050323000C0001
:100FD00023900400EF00902D69B5939734003E975D
:100FE0008347170185C30356C7008347070103578B
:100FF000E700B3768603A68513854B123356860326
:10100000EF20C0408504C204C1804DB5CD257300DA
:101010002030411122C63744004093054042130559
:10102000044026C4EF10403A21C513050440EF10D8
:1010300040383704024038589307C0021304C406EE
:10104000998FB704002093F7F70F1387840C81451D
:101050002285A300F700EF0070259307C0025CC053
:10106000B70700209387A70C5CC485472384F40C42
:101070003244A244410173002030411122C637544A
:1010800000409305404213050480EF10E0331DC972
:1010900013050480EF10E031370402408145130549
:1010A0000403EF00B020545813070008158F23994C
:1010B000E1821307000858D81387818A58DC054756
:1010C0002388E18232444101730020308357C521D7
:1010D00023A00500239205002393F5008357E52103
:1010E0002394F50081470357E52163E3E7008280FD
:1010F0001397370085072E97C2072315070023167D
:1011000007002317070023180700C183E9BF014721
:101110008DC98567938707E1B3F6B702014795E26A
:10112000B3D7B7021306F02CC207C1839386F7FF2B
:10113000C206C1826367D600231EB520231FF52097
:1011400005473A858280EFF2AF8223020510C1671E
:101150002326F520A30205108D67AA9723280520D2
:10116000232A0520232C052023030510130700F054
:10117000239EE7F2238F07F2930545222A84B9378D
:1011800089659385058BA295228589376FF08F80BD
:10119000EFE27FFC8D642E89B2898145138644F489
:1011A0002A84EFE0FFFF930700F0A294239EF4F25D
:1011B000CA85230034232285993F93054422228542
:1011C000313789659385058BA29522850137228564
:1011D0009D3F6FE09FFBEFE21FF883D705004111B1
:1011E0002A84C207C1832317F10083D745003285C3
:1011F0008145C207C1832317F1008357E10032897B
:101200003A8AB689EF00900A4A85EF00D00C330580
:10121000AA4093140501C180A1CC63FB4405834718
:101220006410854A63E3FA06034544102686CE859A
:101230001E052295EF20800D8347441093870708F1
:101240008607A2972390970083474410850793F75A
:10125000F70F2302F4108347441063F4FA002302CB
:10126000041083476410850793F7F70F2303F410E6
:10127000D2854A85EF00F0058545232639014A8548
:10128000EF00D00241016FE05FF0832784108507F3
:101290002324F410F1BFEFE23FEB196A8D692A8431
:1012A000130AFA9FAA998347641093F7F70F99E3FB
:1012B0006FE01FED834554100355C42093F5F50FDF
:1012C000938705088607A29783D407009307001029
:1012D0003307950063DBE702C1672326F4208347C9
:1012E00054100547850793F7F70FA302F4108347BF
:1012F00054106374F700A302041083476410FD17B1
:1013000093F7F70F2303F41079BF1305C5109E055B
:101310002686A2952295EF10707F8357C420130B69
:10132000C410994BBE9423169420130C3411834798
:10133000E4200359C420CDC3E3F32BFB130D99FF25
:10134000420D8144135D0D01939C04011D4693855C
:10135000018133059B0093DC0C01EF10D0780DE187
:1013600013960401418663540602930569101946D9
:10137000A2955A85EF20E00499472316F42085B7FB
:10138000850493970401C183E370FDFCF9BF05C692
:10139000832784219305C610A295B297232CF420AD
:1013A0003306C9405A85EF20C0018357C420B38754
:1013B00097412316F4200356C420E3F2CBF26516BE
:1013C000E2855A85EF10F07F8357C420230704205D
:1013D000E5172316F420A1BF9147E3F227F1856CAE
:1013E0008144114BA94B938CCC680356C420058EC5
:1013F0006342CB02E38504EE9385C410A2951305E6
:10140000C410EF10107C8357C420B3849740231678
:101410009420F1B5B307940083C7C71013D7170002
:101420003D8F058B630907121387C41022978346EB
:10143000170013F616006300061203492700858281
:1014400013DD27001E093369D90063462A11034CB6
:10145000470003473700220C336CEC00630D0C0E81
:10146000032744219504C2040507232AE4200347E7
:10147000F420858BC18055E7ADDB8547A307F420B9
:1014800083C5C9F3B3859503228593854522A2952B
:10149000EFF0DFC383470422E369FDF4131609016B
:1014A000330979030357C4218356E421418293878A
:1014B000F6FF13090902135969003357E9026373F0
:1014C000D700BA8703C7C9F38E07135C2C00B30695
:1014D0009703BE96A29683C5562399C903C5462392
:1014E0006368A501E313ADF083D62623E37FDCEE2A
:1014F000330797038546BA97A2972397C722239865
:10150000272323998723238AA723A38AD722E39E0D
:1015100005ECB307E40003D7872205072394E722ED
:10152000E9B5ADDB83C5C9F3B3879503A29703D7AC
:1015300087222DD303A709F4050723A0E9F423A2EA
:10154000E722A38EB9F2854793C51500238FF9F2E0
:10155000238EB9F205BF832704218504C2048507C1
:101560002328F42083278421C1808507232CF4209D
:10157000ADBD0D672A978346E7F395C28307D7F37E
:10158000814663CE070085669386C668B387D70217
:10159000854693874722AA979CC1230F07F2368579
:1015A0008280EFE2FFBC2A891165797185451105BA
:1015B00002CA02CC02CE02D002D202D402D602C6A5
:1015C00002C8EF00207D3714014093070020231A42
:1015D000F1008D44E1474C081305048026CC3ECE33
:1015E000FD2993070040231AF1004C089147130589
:1015F00004803ECE37440140DD210C10B7070C00BB
:10160000130504804AD03ED402D223160102EF0013
:10161000B048930750132316F100680085473EC871
:10162000230791002525130504808545EF005051BF
:1016300083570480130504800546C207C183231520
:10164000F1008357450093054042C207C18323152B
:10165000F1008357A100EF00705045616FE09FB328
:10166000EFE21FB179711306C00281454800EFE037
:101670003FB38545054537040240F52D81451305E7
:1016800084052D2113058405CD2C3749014093078E
:1016900049803EC293070008938481923EC83ECCA5
:1016A0004C008D67130584053ED426C402C602CAC9
:1016B00002CE02D002D202D6752E0546130509804D
:1016C00093050004EF00F04C130584059305000812
:1016D00009211305840544C58545C92E45616FE080
:1016E0007FABEFE2FFA8753DA53F6FE0BFAAEFE239
:1016F0003FA8374401409305404213050480EF00A2
:10170000B04C0DC137060240370500201307000812
:10171000938681921306860593050480130585221E
:10172000EFF07FAB6FE01FA7EFE29FA42A84930541
:1017300000042285EF0090487DD99305500A228548
:10174000EF009046930500042285EF0030477DD9D5
:10175000930500022285EF003045930500042285A1
:10176000EF00D0457DD96FE0FFA2B7170240984344
:10177000B706FFF841111367170098C3D84337061F
:101780000200758FD8C39843B706F7FEFD16758F14
:1017900098C39843B706FCFFFD16758F98C3D843CE
:1017A000B70681FFFD16758FD8C337079F0098C70E
:1017B00002C402C69843C166558F98C3B71602404B
:1017C000130700509C42F18F3EC6A24785073EC4D6
:1017D000B24781E7A247E397E7FEB71702409C4371
:1017E0001397E7006354070885473EC6324785478D
:1017F000631CF706B72702409843B706C1FFFD16E2
:101800001367070198C39843719B98C39843136764
:10181000270098C3B7170240D843D8C3D843D8C3CA
:10182000D84313670740D8C3D843758FD8C3D8436C
:10183000B7061D00558FD8C39843B7060001558FD2
:1018400098C3984393166700E3DD06FED843B716A6
:101850000240719BD8C3D84313672700D8C32147E0
:10186000DC42B18BE39EE7FE4101828002C6BDBF30
:10187000B7160240DC42370700201146B18B130730
:1018800007086385C70021466389C702B7177A0036
:10189000938707201CC3B7170240DC43918393F65C
:1018A000F700B707002093870700B69783C60700A5
:1018B0001C43B3D7D7001CC38280DC42D042C9830B
:1018C000BD8B9315F600890763CD0500B74602402E
:1018D00083A60680C18A99CAB7167A009386062025
:1018E00011A8D4421396E600E35806FEB7163D0051
:1018F00093860690B387D70271BF01A097F1FF1FAF
:10190000938141F8173100201301C16F1745000082
:10191000130505AC97E5FF1F9385C56E13860182FD
:1019200063FAC5008322050023A055001105910527
:10193000E3EAC5FE13850182972500209385858300
:101940006377B500232005001105E36DB5FE930212
:1019500080087390023097E2FFFF9382226E93E239
:10196000120073905230EFF05FE097F2FFFF938226
:10197000E24573901234730020301C41416779179F
:10198000F98F1CC123200500232205002324050014
:10199000B707024023260500138787006317E50079
:1019A000D8431367F700D8C382801387C701631633
:1019B000E500D8431367070FFDB7138707036318C4
:1019C000E500D8438566938606F0558FE9BF1387F7
:1019D00047046315E500D843BD66C5BF1387870577
:1019E0006316E500D843B7060F00C5B71387C706CF
:1019F0006316E500D843B706F000C1BF1387070898
:101A00006316E500D843B706000FC1B713878740B8
:101A10006319E50003A747401367F70023A2E740D7
:101A200082801387C7416317E50003A74740136708
:101A3000070FEDB793870743631BF500B707024015
:101A400003A747408566938606F0558FC1BFB70749
:101A50000240138747446316E50003A74740BD666D
:101A6000EDB713878745E31DE5FA03A74740B7069F
:101A70000F00E1BF1C4161773D0794517D8F9C456C
:101A8000D58F9449D58FD449D58F944DD58FD44DCA
:101A9000D58FD451D58F9455D58FD98F1CC1DC45A6
:101AA0005CC19C411CC5DC415CC582801C4189C570
:101AB00093E717001CC1828041677917F98FDDBF5A
:101AC0001C4101C6DD8D0CC1828093C5F5FFFD8DE3
:101AD000DDBF4CC1828048414205418182809C45E6
:101AE00013F7070113F8F70001C7D8413368E8007E
:101AF00083D5050013F7F50F39C318418146854E8C
:101B00003D4F930F800293028004214E3396DE00F6
:101B1000B3F8C500631116039398260033131F0111
:101B20001343F3FF3377E300B318180133E7E800FA
:101B3000639FF70550C98506E39AC6FD18C11307D0
:101B4000F00F6375B70454412146854E3D4F930F06
:101B5000800293028004414EB398CE0033F7150102
:101B60006392E8021317260001173313EF001343A3
:101B7000F3FFB376D3003317E800D98E639DF701E6
:101B8000232A15010506E319C6FD54C18280E3949A
:101B900057FA10C94DB7E39757FE23281501DDB753
:101BA0004CC9828019C20CC982804CC98280B70797
:101BB000014063570504D84FB7073000931605015D
:101BC0003376F500C182631FF602370600F17D16F9
:101BD00037080140B377C70003274800798E2322D6
:101BE000C80089C9135755011377F73F1207339778
:101BF000E600D98F37070140635005045CCF82802F
:101C0000D8435DBF9317B50063D007029357050112
:101C100013F6F7008D47B397C70093C7F7FFF98F07
:101C20003707000FD98F75BF9357550193F7F73FCB
:101C30009207B397F600D5B75CC38280B7E700E0A0
:101C4000370705FAB8C723ACA182828083A68183B7
:101C50008547034705006392F60283471500639D9D
:101C6000D70283472500920793E707F8B7E600E01D
:101C700093F7F70FBA962380F6408546935757009F
:101C8000B396E600584111CF938707048A0737E7D8
:101C900000E0BA9794C38280EDF383472500920752
:101CA000F1B737E700E0938707063043C1458A075D
:101CB0002CC3BA9794C330C38280371702405C4369
:101CC0009146B18B6385D700A1466386D706B717C7
:101CD0007A00938707201CC1371602405C42370701
:101CE0000020130707019183BD8BBA9783C60700B5
:101CF0001C41B3D7D7005CC15442A1829D8ABA96D9
:101D000083C60600B3D6D70014C55442AD829D8A5F
:101D1000369703470700B3D7E7005CC558423983BD
:101D20009376370013874180369703470700B3D770
:101D3000E7021CC982805C435443C983BD8B139660
:101D4000F6008907634D06003747024003270780E6
:101D5000418B19CB37177A001307072011A8584376
:101D60009316E700E3D806FE37173D0013070790E8
:101D7000B387E7028DB799C5371702405C4B5D8D7D
:101D800048CB8280B7170240D84B1345F5FF798DB9
:101D9000C8CB828099C5371702401C4F5D8D08CF94
:101DA0008280B7170240984F1345F5FF798D88CF91
:101DB000828099C5371702405C4F5D8D48CF828085
:101DC000B7170240D84F1345F5FF798DC8CF8280F1
:101DD000835705029206C207C183F99BC207C183DC
:101DE0002310F50203578501835705020358850127
:101DF00042074183336806011377C7F0558E518F30
:101E0000B7360140C2074207231C0501938606C06E
:101E1000C18341836300D502B7060040630CD5003F
:101E2000938606406308D500B71600409386068067
:101E3000631BD500F59BCD8F93E71700231CE500AE
:101E40002310F5028280D59BFDB783570502220639
:101E50004206C207C183BD9BC207C1832310F5029E
:101E60008358850185679387F7CF03570502B3F73A
:101E70001701835885014182B206B3681601558E59
:101E800013984500D18FB736014042074208C20778
:101E9000231C1501938606C0418313580801C18392
:101EA0006300D502B7060040630CD5009386064058
:101EB0006308D500B716004093860680631DD500E1
:101EC0001377F7FD3367E80013670701231CF5005C
:101ED0002310E50282801377F7F54D8FF5B783570E
:101EE000050037370140130707C0C207C1836300ED
:101EF000E50237070040630CE5001307074063085D
:101F0000E50037170040130707806317E50003D784
:101F1000250093F7F7F8D98F03D7650093F7F7CF2C
:101F2000C207C183D98F2310F50083D7450023163C
:101F3000F50283D705002314F502B73701409387D4
:101F400007C06316F50083C785002318F50285478F
:101F5000231AF50082808357050203D6050003D8B3
:101F60002500C207C183F99BC207C1832310F50274
:101F7000835705028356450003578501C207C18375
:101F8000420741831377C7F8518F03D68500F59B2D
:101F9000C20633660601D18F37360140130606C0EC
:101FA000C1826313C50203D6A500DD9B03D8E500FB
:101FB000D18F03D64500ED9B93F6F6CFD18F03D694
:101FC000C50033660601D18E2312D500231CE5001F
:101FD00003D76500231AE5022310F5028280835798
:101FE000050091C593E717002310F5008280C20712
:101FF000C183F99BC207C183C5BF8357450491C5FF
:102000002167D98F2312F5048280C607C583DDBFFF
:102010008357C50009C6DD8D2316B500828093C5A0
:10202000F5FFFD8DD5BF8357050091C593E70708E0
:102030002310F5008280C207C18393F7F7F7C20728
:10204000C183FDB783578501C207C183DD9BDD8D49
:10205000231CB5008280231AB50282808357850134
:10206000C207C183CD9BC207C183231CF5008357E0
:102070008501DD8D231CB500828003578501FD7726
:102080009387F73FF98F231CF50083578501A2053D
:10209000DD8DC205C181231CB50082808357C50137
:1020A000C207C183CD9BC207C183231EF50083579E
:1020B000C501DD8D231EB50082800357C501FD7764
:1020C0009387F73FF98F231EF5008357C501A205BB
:1020D000DD8DC205C181231EB5008280EFE24F89EC
:1020E00003D705002A84AE8483D7250003D6450094
:1020F00083D6850011EBBE85EFF09FCD83D56400BC
:102100002285A93F6FE00F899145631AB700BE850C
:10211000EFF0BFD383D5640022858537E5B721452D
:1021200083D56400631FA70803570402920613981F
:102130008700420741831377F7EF4207418323105B
:10214000E4020355C401035704028358C401420545
:1021500041811375C5F0518D558DB3681601B736A1
:102160000140420742084205231E1401938606C01F
:1021700041831358080141816300D402B70600402F
:10218000630CD400938606406308D400B716004061
:1021900093860680631FD4001377F7DF3367E80068
:1021A00093670710231EA4002310F4022285FD3537
:1021B00091BFFD769386F65F758FD98F93E70710F1
:1021C000D5B7035504027D777D17698F2310E4028C
:1021D0008358C40105671307F7CF03580402337708
:1021E000170122068358C40142064182B206B36831
:1021F0001601558E598E1395C70037370140420896
:1022000042054206231E1401130707C01358080194
:10221000418141826300E40237070040630CE4001F
:10222000130707406308E4003717004013070780CF
:102230006312E402F977FD173378F800336805017B
:102240008567B367F800231EC4002310F4022285BB
:10225000AD354DBD1378F8DFB3E707010567D98FBA
:10226000DDB703554503828003558503828083577C
:1022700005010355C500ED8F4205418189C76D8D6C
:102280003335A00082800145828093C5F5FFC205E9
:10229000C1812318B5008280EFD29FED83560501DE
:1022A000F577FD17F58F83D6650003D7C5007971E3
:1022B000D58F2318F5008356C500FD779387379F88
:1022C000F58F83D645002A842EC6D58F83D6850008
:1022D000D58F83D6A500D58F2316F50083574501EA
:1022E000C207C18393F7F7CFD98F231AF500680887
:1022F000EFF0BF9CB747014093870780B245631F4B
:10230000F402A2576547B387E70298419306400657
:102310000A07B3D7E70233D7D702B3F7D7021207BA
:10232000920793872703B3D7D702BD8BD98FC207F4
:10233000C1832314F40045616FD0DFE59257D9B70C
:1023400081C98357C5000967D98F2316F50082809C
:102350000357C500F977FD17F98FC5BF13F7F50FC0
:1023600085471583B395B7006319F7009307C50038
:10237000984301CED98D8CC382808946930745014D
:10238000E318D7FE93070501E5B793C5F5FFF98D6F
:10239000DDB78357450109C6DD8D231AB50082805C
:1023A00093C5F5FFFD8DD5BF93F5F51F2312B5003D
:1023B0008280035545001375F51F82800355050083
:1023C0006D8D3335A000828013F7F50F8546158398
:1023D000B397B6006313D7020357C500F98F0357AD
:1023E000050001454207418381CB0545A181B31515
:1023F000B5006D8F3335E000828089466315D700C4
:1024000003570501E1BF03574501C9BFB7070020C6
:1024100083A7070837177A0013070720B3D7E70207
:1024200093F7F70F238FF1821307803EB387E702FC
:10243000239EF1828280B7F700E023A0070003D734
:10244000C18323820700A38207002383070033058B
:10245000A702A3830700054798C337F700E05C4352
:10246000E37FF5FE8280EFD21FCFB7540040AE89E4
:102470003289014493840480634524014A856FD0E6
:10248000DFD0930500042685153F65DDB3878900FD
:102490008385070026850504C205C1813137E9BF60
:1024A000138781801C43B7360020938606173E951C
:1024B000636BD500B75600209386068063E5A600BF
:1024C00008C33E858280FD57EDBF4111370780006C
:1024D0007D1713D8750126C2935475013373A70075
:1024E00093F4F40FB376B7004AC01378F80F13597A
:1024F000F50106C622C4FD819A8726854A86131EE9
:102500003300939E3600B3880441630AB90E6350CA
:10251000100D630408149307F00F638BF414B707CE
:102520000004B3EEFE00ED4763C1172993070002D4
:10253000B3871741B397FE00B3D81E01B337F0003D
:10254000B3E7F800B307FE4013975700635E071820
:10255000370400047D147D8C2285EF0070516D15C9
:10256000B317A4006348951A058D130415001307CB
:102570000002018F3397E7003337E000B3D78700BD
:10258000D98F814413F7770019C713F7F7009146E5
:102590006303D700910713975700635B0714850403
:1025A0001307F00F4A866383E4169A07A58313F591
:1025B000F40FB2402244A6079314750113D5970077
:1025C000458D7E0692440249518D41018280639976
:1025D000080A138714001377E70F63170714639033
:1025E0000422630D0E1EE3860EFCB307DE41139733
:1025F000570063500722B387CE412E8961B7635CD1
:10260000100B630E08089307F00F6383F406B707F7
:102610000004B3EEFE00ED4763C9171F93070002E5
:10262000B3871741B397FE00B3D81E01B337F0004C
:10263000B3E7F800F297139757006357070A85042A
:102640001307F00F6384E40CB706007E13D717005E
:10265000FD16858B758FD98F35B7638D0E08FD18E4
:10266000B307DE41E38208EE9307F00FE39DF4EA3F
:10267000630D030801461305F00FB707400015BFAF
:1026800033079840EDE863020E147D1763080718BE
:102690009307F00F6319F80E2E893683D1BF638B31
:1026A0000E04FD18B307DE01E38708F89307F00F67
:1026B000E393F4F675BF63950808850413F7E40FF8
:1026C0006313071263170510630F0E14E3830EEEF6
:1026D000B307DE011397570081446357070037079C
:1026E00000FC7D17F98F854413F77700E31F07E897
:1026F00013D337009307F00FE38CF4F6931793008E
:10270000A58313F5F40F4A866DB54A861305F00FBD
:10271000814745B5370700FC7D17F98F13F7770020
:10272000898CE31407E6E9B73304DE4193175400BC
:1027300063C3070CE31204E201460145814795BDDE
:1027400033079840ADC49307F00FE308F8F4B707D8
:102750000004336EFE00ED4763CCE70C93070002E4
:10276000998FB317FE003357EE00B337F000D98FBF
:10277000F697C284C9B59307F00FE30FF8F0B707D7
:102780000004336EFE00ED4763C3E70893060002C2
:10279000998EB316DE00B357EE003337D000D98FD1
:1027A000B387FE40C2842E8945B3854761BB630E63
:1027B0000E067D17B307DE01C284E30E07E693071A
:1027C000F00FE31AF8F8368365B53683C2842E8994
:1027D00015B7E3040EECE38D0EE869BD638D0E02C0
:1027E0002E86B687F9B39307F00FE381F4F2B307AF
:1027F000DE018583D5BD3384CE412E89B1BBE31C78
:102800000EFCE3890EE62E8949BD854725B585472F
:1028100041BFE39B07EC0146814761BBB387CE41D3
:10282000C2842E8915B3B68769B33683C284D9B5FD
:1028300085473DBF3971935775014AD856D25ECE50
:10284000931A95001359F50106DE22DC26DA4ED6DE
:1028500052D45AD093F7F70F93DA9A00CA8B638257
:1028600007121307F00F6384E7128E0A370700047C
:10287000B3EAEA00138A17F80144014B93D77501B4
:102880009394950093F7F70FA58093D9F501FDC7B1
:102890001307F00F6387E7028E04938717F8370753
:1028A0000004D98C330AFA408146558C1737000052
:1028B0001307478C0A043A941C4033493901BA97EC
:1028C0008287130A1AF0F9E88946558C17370000F9
:1028D0001307478E0A043A941C4033493901BA97CA
:1028E000828701491307F00FB7074000139597003F
:1028F000F25062549317770125817E095D8D33650F
:102900002501D2544259B259225A925A025BF24BD3
:10291000216182801307F00F8147C9BFA68ACE8B41
:10292000368B8947630BFB1A8D47E30CFBFA85470F
:10293000630AFB0A1307FA0713F91B006357E01237
:1029400093F77A0099C793F7FA0091466383D7000B
:10295000910A93974A0063D90700B70700F8FD175B
:10296000B3FAFA0013070A089307E00FE3C4E7FA83
:1029700093976A00A5831377F70F8DBFB9E4854657
:10298000A9B763940A021144014A054BC5BD639976
:102990000A002144130AF00F094BCDB58D4631B71B
:1029A0003144130AF00F0D4BD1BD56852EC6EF00F2
:1029B000300C9307B5FFB39AFA009307A0F8338A57
:1029C000A7400144014BB24555BD2685EF00500A92
:1029D0001307B5FFB307AA00B394E400138A67078F
:1029E0008146E1B513F91B000147814701B74166F4
:1029F000139554007D1693570501698E63FA9A0A60
:102A0000B3D5FA027D1AD68601473388C502B3F6DC
:102A1000F602C206558F637B07012A979386F5FF5E
:102A20006368A70A6376070BF9152A9733070741EE
:102A3000B356F7023377F702B38AC602931707013A
:102A400063FB5701AA971387F6FF63E1A70863FFAB
:102A50005707F916AA97C205B38A5741D58DB33ADD
:102A60005001B3EA5501CA8BF1B58546998E11C75D
:102A70006D4601478147E34BD6E6130AEA09339ACC
:102A80004A01B3D7DA00B33A4001B3E7570113F76D
:102A9000770019C713F7F70091466303D700910732
:102AA00013975700634807029A07A58301473DBD66
:102AB00093D61A00B3D5F6021397FA0141833388EF
:102AC000C502B1B7CE8B368B814AA1BDBA8661B73C
:102AD000B685A9BF0547814711BD13F91B00130730
:102AE000F00F814721B5797122D4135475014ECE70
:102AF00052CC9319950006D626D24AD056CA5AC847
:102B00001374F40F93D99900135AF50169C493070C
:102B1000F00F6308F40E9397390037070004B3E908
:102B2000E700130414F88144014B13D77501939AFD
:102B300095001377F70F93DA9A0013D9F50145CF73
:102B40009307F00F630CF7028E0A130717F8B70705
:102B50000004B3EAFA003A94014633452A01BD471E
:102B6000AA869305140063E0971017270000130747
:102B700067688A04BA949C40BA9782871304F40F5A
:102B800063960A0C93E424000946C1BF014513076C
:102B9000F00FB7074000B2502254A6075E07A58386
:102BA0007E05D98F92540259F249624AD24A424B69
:102BB0005D8D45618280CA86D689328B8947630FD5
:102BC000FB088D47E304FBFC854736856310FB1A41
:102BD00001478147C9B7639D090413D77501939ACB
:102BE00095001377F70F91440144054B93DA9A004F
:102BF00013D9F50131F7639D0A0093E414000546EB
:102C0000A9BF63920902A1441304F00F094B31BF1D
:102C10005685B92D9307B5FF098CB39AFA001304B2
:102C2000A4F801461DBFB1441304F00F0D4BF5BDD0
:102C30004E852EC6352D9307B5FF1304A0F8B39922
:102C4000F900098C8144014BB245C5B593E43400C9
:102C50000D4621B78947D286E315FBF63685130763
:102C6000F00F81470DBF41639306F3FF13D60901AF
:102C700093D80A01B3F7D900B3FADA0033885703BF
:102C8000B389F80213570801B30A5603D6994E9731
:102C900033061603637357011A96C167FD17B3769F
:102CA000F7003378F800C206C296939966009357EE
:102CB0000701B3393001E982B2979A07B3E6D90028
:102CC000B3E9D7009397490063D9070013D71900D8
:102CD00093F71900B369F7002E841307F4076350C4
:102CE000E00493F7790099C793F7F900914663835D
:102CF000D70091099397490063D90700B70700F8F7
:102D0000FD17B3F9F900130704089307E00F63CB2D
:102D1000E70493976900A5831377F70FADBD854747
:102D2000B386E74011C76D4601478147E345D6E6C4
:102D30001307E4093397E9003337E000B3D7D9002C
:102D4000D98F13F7770019C713F7F700914663037C
:102D5000D700910713975700634C07009A07A58384
:102D6000014715BD1307F00F814735B52E84B5B760
:102D7000054781470DB53707800041117D179356F0
:102D8000750113D87501B377A70093F6F60F935E1C
:102D9000F5013376B70026C24AC01378F80F06C68D
:102DA00022C41303F00F3E8E3689F684139F37003A
:102DB000FD8113153600B38806416302681093C580
:102DC0001500638CBE106354100D6310081063046B
:102DD000051EFD18B307AF40638608029307F00F86
:102DE0006388F616ED4763C71729130700023307F8
:102DF00017413317E500B35715013337E000D98F7A
:102E0000B307FF40139757006351071A37040004B4
:102E10007D147D8C2285A9296D15B317A400634EFE
:102E2000251B330525411304150013070002018FEC
:102E30003397E7003337E000B3D78700D98F0149D4
:102E400013F7770019C713F7F70091466303D7000C
:102E5000910713975700635E071493061900130731
:102E6000F00F93FE14006386E6169A07A58393F687
:102E7000F60FA607B240224413D59700DE069397BB
:102E8000FE01558D924402495D8D4101828063921D
:102E9000080A138716001377E70F631B0714639460
:102EA000062263020F2071D5B307AF401397570076
:102EB00063550722B307E5410149AE8451B7E300EA
:102EC00005F0638ABE0AE35410FD9307F00F638197
:102ED000F608B70700045D8D31B7635E1009630122
:102EE00008089307F00F6385F606B70700045D8DA9
:102EF000ED4763C0171F130700023307174133174D
:102F0000E500B35715013337E000D98FFA971397CF
:102F10005700635C070805091307F00F630BE90A04
:102F2000B706007E13D71700FD16858B758FD98FD6
:102F300001BF3307D84063950610630D0F147D174A
:102F40006303071A9307F00F6314F810AE84328EF0
:102F5000630F0E06814E9306F00FB707400011BFB6
:102F600039C9FD18B307AF00E38308FA9307F00FE0
:102F7000E390F6F8F1BF63990808138916001377F8
:102F8000E90F63160712639B061063030F16E30233
:102F900005EEB307AF0013975700014963570700C9
:102FA000370700FC7D17F98F054913F77700E31CFD
:102FB00007E813DE37009307F00FE30BF9F89317D8
:102FC0009E00A5839376F90F93FE14005DB593FEE2
:102FD00014009306F00F814769BD370700FC7D1789
:102FE000F98F13F777003309A940E31E07E4D1B73F
:102FF0003304AF409317540063C3070CE31C04E091
:10300000814E81468147B5B53307D840B5C6930791
:10301000F00FE30EF8F2B7070004336FFF00ED473F
:1030200063CDE70C93070002998FB317FF00335766
:10303000EF00B337F0005D8FB307A7004289C1BD31
:103040009307F00FE304F8F0B7070004336FFF00B5
:10305000ED4763C2E70893070002998FB317FF009B
:103060003357EF00B337F000D98FB307F5404289EB
:10307000AE8449BB854769B3630E0F067D17B3075E
:10308000AF004289E30507E89307F00FE319F8F86A
:10309000328E7DBD328E4289AE8431BFE3090FEAA4
:1030A000E30805EA45BD0DCDAE8EB287D9B39307CF
:1030B000F00FE300F9F2B307AF008583FDB53304E9
:1030C000E541AE8481BBE31D0FFCE30505E8AE845A
:1030D000BDBD854725BD854749BF0149E39707EC3D
:1030E000814E814779B3B307E5414289AE8419BB6C
:1030F000B28741B3328E42897DBD054735BF41114C
:1031000006C622C426C20DCD9357F54133C4A7008D
:103110001D8CAA842285A92A9307E0093387A7403A
:1031200093076009FD8063CCE702A1469377F70F10
:1031300063D5A60061153314A4002604258021A0C0
:10314000814481470144260413559400B24022442F
:10315000DE07FE045D8D458D924441018280930718
:10316000900963DDE7009307B5019546B317F400B6
:10317000898E3354D400B337F0005D8C954763D605
:10318000A7009307B5FF3314F400B70600FCFD1643
:10319000937774003376D40085C39377F400914518
:1031A000638CB70011069317560063D70700930787
:1031B000F009758E3387A740131466002580937736
:1031C000F70F51B7135775011377F70F4111930795
:1031D000170022C426C21314950006C693F7E70F02
:1031E00025809354F50185C793573400130707389A
:1031F0007604B2075207B1831395F401D98FC98FB2
:10320000B240228522449244BE854101828005EB72
:1032100039C42285B128A94763C6A7042D47098F61
:10322000930755013357E4003314F4009317C70094
:1032300013079038098FB1831377F77F5DBF01CCF7
:1032400013573400B7070800D98FB2077604B1834B
:103250001307F07F79BF1307F07F814759BF0147FC
:10326000814741BF130755FF3317E40001447DBF79
:10327000C167637EF5029307F00F1307000263EC4A
:10328000A700972700009387E7FAAA9703C50700CE
:103290003305A7408280218197270000938787F913
:1032A000AA9703C5070061473305A7408280B70787
:1032B0000001636EF500618197270000938787F70F
:1032C000AA9703C5070021473305A74082804181A3
:1032D00097270000938707F6AA9703C50700414781
:1032E0003305A740828001476314E60001458280D0
:1032F000B307E5000507B386E50083C7070083C66B
:10330000F6FFE383D7FE3385D7408280B3C7A5009D
:103310008D8B3307C50081E78D4763EEC700AA8711
:103320006370E50A83C6050085078505A38FD7FE70
:10333000E3EAE7FE828093763500AA8791CA83C6C6
:10334000050085078505A38FD7FE93F63700FDB7E7
:103350009376C7FF138606FE63F0C70683A30500B6
:1033600083A2450083AF850003AFC50083AE05018E
:1033700003AE450103A3850183A8C50193854502DA
:1033800023A0770003A8C5FF23A2570023A4F701B9
:1033900023A6E70123A8D70123AAC70123AC67000E
:1033A00023AE17019387470223AE07FF75B79041FD
:1033B0009107910523AEC7FEE3EBD7FEE3E4E7F602
:1033C000828063F3A504B386C500637FD50293456D
:1033D000F6FF8147FD176393F50082803387F6007F
:1033E000034807003387C7002A9723000701DDB78A
:1033F0003387F500834607003307F5008507230070
:10340000D700E317F6FE82808147E5BF39713EDAC7
:103410002ED232D436D63AD842DC46DE9387C180EB
:1034200022CC804326CA06CEAA8409C41C4C99E348
:103430002285592B0C4454102686228536C6EF006F
:103440007055F2406244D24421618280011126CA43
:103450004AC806CE22CC4EC652C4AA842E8901C5C3
:103460001C4D91E395239C4C804499E32685A92B20
:1034700097270000938707EE631CF402C040835730
:10348000C400A18BB1C71C48A1C7FD59294A1C44DF
:1034900083450900FD17B1E91CC463DE07062286D7
:1034A000A9452685F528FD576308F502294535A06D
:1034B00097270000938707EC6314F4008044C1B79A
:1034C00097270000938707E7E31BF4FAC04445BF42
:1034D000A2852685712255D97D55F2406244D24499
:1034E0004249B249224A056182801CC4050963D75A
:1034F0000700184C63CBE700638945011C40138724
:10350000170018C02380B70059B72286268549289E
:10351000E31F35F7D1B71C401387170018C02947A0
:103520002380E70061B79387C180AA85884339BFAC
:1035300035713ECBA6DA36C73AC942CD46CF93871E
:10354000C18086DEA2DC844363DB05009307B008FC
:103550009CC07D55F6506654D6540D618280930709
:103560008020231AF1002AC42ACC814799C193876D
:10357000F5FF3EC83ECE7401FD572E8426852C00F3
:10358000231BF10036C2EF001012FD576355F50002
:103590009307B0089CC05DDCA247238007005DBF95
:1035A000011122CC26CA4AC806CE4EC6AA842E894C
:1035B000328401C51C4D91E30129972700009387B0
:1035C00067D96319F406C0401C4C1CC48357C4005F
:1035D000A18BC9C31C48BDCF1C4808409379F90F83
:1035E0001379F90F1D8D5C486346F500A285268589
:1035F000652C2DE51C440505FD171CC41C401387D4
:10360000170018C0238037015C486389A7008357DF
:10361000C400858B81CBA9476316F900A285268556
:1036200061240DEDF24062444A85D2444249B249D8
:1036300005618280972700009387C7D36314F40045
:10364000804459B7972700009387C7CEE31EF4F64E
:10365000C0449DBFA285268521203DDD7D59D9B777
:1036600041119387C18026C2844322C44AC006C642
:103670002A892E8489C49C4C99E32685B1269727F4
:103680000000938727CD631CF402C0400317C400D9
:1036900093170701C18393F68700B5EE93F60701F0
:1036A0009DEEA5472320F900136707042316E400C5
:1036B0007D55B240224492440249410182809727BD
:1036C0000000938727CB6314F4008044C1B7972789
:1036D0000000938727C6E31BF4FAC04445BF918BD3
:1036E0008DC74C5889C9930744046384F5004A8503
:1036F0009923232A04028357C4002322040093F74A
:10370000B7FD2316F4001C481CC08357C40093E780
:1037100087002316F4001C4881EF8357C400130769
:10372000002093F707286385E700A2854A85AD212D
:103730008357C40013F7170005C75C48232404000F
:10374000B307F0401CCC1C480145A5F78317C40003
:1037500013F7070839DF93E707042316F40089BF3E
:10376000898B014791E3584818C4F1BF83D7C5003E
:10377000011122CC26CA06CE4AC84EC613F78700CE
:10378000AA842E8471EFD841634DE000B841634AAA
:10379000E0000145F2406244D2444249B249056129
:1037A000828058547DD703A904009396370123A043
:1037B000040063DD060670488357C400918B99C7E7
:1037C0005C401D8E5C5899C33C401D8E5C540C506F
:1037D000814626858297FD570357C400631DF50077
:1037E0009440F54763E8D706B70740208507B3D76D
:1037F000D700858BA5C31C48232204001CC0931747
:10380000370163D80700FD576314F5009C4091E32E
:1038100068C84C5823A02401ADDD93074404638499
:10382000F50026850929232A0402A5B70C50014674
:10383000854626850297FD572A86E31FF5F69C40AC
:10384000A5DF75476385E70059476394E70423A024
:10385000240181B7136707042316E4007D551DBFBB
:1038600083A90501E38709F203A905008D8B23A035
:10387000350133093941014791E3D84918C4E35A66
:1038800020F11C540C50CA864E86268582976349C7
:10389000A0008357C40093E707042316F4007DBFFC
:1038A000AA993309A940E1BF9C49A5C3011122CCC3
:1038B00006CE2A8411C51C4D81E72EC63122B245A1
:1038C00097270000938707A9639CF5004C408397D6
:1038D000C5009DC722856244F24005616FF01FE973
:1038E00097270000938707A96394F5000C44C5B798
:1038F00097270000938707A4E39BF5FC4C44C1BFC6
:10390000F240624401450561828001458280411197
:1039100022C406C62A842316B5002317C500232017
:103920000500232205002324050023220506232861
:103930000500232A0500232C050021468145130597
:10394000C505EFC0FF8597170000938727ED5CD072
:1039500097170000938787EF1CD497170000938771
:10396000C7F35CD497170000938787F600D01CD864
:10397000B24022444101828097050000938505F3FF
:1039800089AA411126C2130680069384F5FFB384E9
:10399000C4024AC02E8922C406C6938544078126E4
:1039A0002A8401CD2320050023222501310508C4E6
:1039B000138684068145EFC0AFFE2285B2402244C3
:1039C00092440249410182801C4DA5E7411106C67F
:1039D00022C497070000938767FA1CD593878181DB
:1039E0009C4323240504232605042328050463148B
:1039F000F50085471CCD2A84352848C022851D281E
:103A000008C42285052848C4484001469145EFF086
:103A10001FF008440546A545EFF07FEF48440946EE
:103A2000C945EFF0DFEE85471CCCB240224441018E
:103A30008280828041119387818126C284434AC05B
:103A400006C69C4C22C42A8999E32685B53F9384F7
:103A500084048044DC40FD1763D607009C40B9CF46
:103A60008440C5BF0317C40039E7C1778507232207
:103A700004062320040023220400232404005CC441
:103A800023280400232A0400232C04002146814516
:103A90001305C405EFC0CFF0232A0402232C04022F
:103AA00023240404232604042285B24022449244A1
:103AB0000249410182801304840671BF91454A8501
:103AC000EFF03FEC88C049FDB1472320F9000144E5
:103AD000E1BF797122D44AD052CC56CA5AC85EC6C8
:103AE00006D626D24ECE2A8AAE8A13048504014910
:103AF000054BFD5B09ECB25022544A8592540259A1
:103B0000F249624AD24A424BB24B45618280044438
:103B100083294400FD1963D409000040E1BF83D725
:103B2000C400637BFB008397E40063877701A6856D
:103B30005285829A3369A90093848406E1BF197182
:103B4000A6DAAE848395E500A2DC86DE328463DCEF
:103B5000050083D7C40023A0060093F7070885E774
:103B6000930700401DA0300836C6EF00F05CB24657
:103B7000E34105FE7247BD67F98F7977BA9793B72E
:103B800017009CC2F1BF930700041CC0F650665496
:103B9000D65401450961828083D7C500011122CC2A
:103BA00006CE26CA4AC8898B2E8489CF930774040F
:103BB0001CC01CC885475CC8F2406244D2444249DC
:103BC0000561828074003000AA84953FA2452A894D
:103BD0002685312201ED8317C40013F7072069FF02
:103BE000F19B93E727002316F400C9B7970700005D
:103BF0009387C7D89CD48357C40008C008C893E7EC
:103C000007082316F400A2475CC8B24791CF83157A
:103C1000E4002685EF00705501C98357C400F19B6D
:103C200093E717002316F4008357C4003369F900A3
:103C30002316240151B7DDC183A7C5FF411122C45A
:103C400006C626C21384C5FF63D307003E94AA8428
:103C5000EF009059938701849C4381EF2322040055
:103C600023A081842244B2402685924441016F0002
:103C7000D057637EF40014403307D4006396E70006
:103C80009843DC43369718C05CC0D9BFBA87D84385
:103C900019C3E37DE4FE94433386D700631F860097
:103CA0001040B29694C33386D700E31DC7FA104381
:103CB0005843B29694C3D8C375B76375C400B1476F
:103CC0009CC04DB71040B306C4006316D700144320
:103CD0005843B29614C058C0C0C369B7828001115E
:103CE00026CA93843500F19806CE22CC4AC84EC627
:103CF000A104B14763F5F404B14463E4B4042A8930
:103D0000EF00904E9387018498433A8429E4938787
:103D100041849C4399E781454A85EF00D02C23A23A
:103D2000A184A6854A85EF00102CFD59631935073B
:103D3000B1472320F9004A85EF00304B29A0E3DE8C
:103D400004FAB1471CC10145F2406244D2444249E1
:103D5000B249056182801C40858F63CF0702AD4662
:103D600063F6F6001CC03E9404C031A05C406313AF
:103D7000870223A0F1844A85EF0030471305B40081
:103D80009307440061993307F5405DDF3A94898FCA
:103D90001CC05DBF5CC3C5B72287404085BF13040C
:103DA00035007198E30285FCB305A4404A85EF0015
:103DB0009023E31B35FBADBF01114AC803A9850061
:103DC00022CC52C45AC006CE26CA4EC656C22E8433
:103DD000328B368A63EE260983D7C50013F707486E
:103DE00051C704408C495848AA8AB389B4408D44CD
:103DF000B384E4020947B3C4E402138716004E9764
:103E000063F3E400BA8493F70740D9C3A6855685C7
:103E1000EFF0FFEC2A890DE5B14723A0FA008357A4
:103E2000C4007D5593E707042316F400F240624472
:103E3000D2444249B249224A924A024B05618280E9
:103E40000C484E86EFF08FCC8357C40093F7F7B73A
:103E500093E707082316F4002328240144C84E9949
:103E6000B38434412320240104C4528963732A019A
:103E7000528908404A86DA85EFF0AFD41C440145E8
:103E8000B38727411CC41C403E992320240179BFDD
:103E900026865685EF0090352A895DFD0C485685AB
:103EA000EFF07FD995BF83D7C500717126D34AD172
:103EB0004ECF06D722D552CD56CB5AC95EC762C562
:103EC00066C393F70708AA892E89B284B9C39C49AF
:103ED000A9E39305000436C6EFF07FE02320A90094
:103EE0002328A900B24615E1B14723A0F9007D556A
:103EF000BA502A549A540A59FA496A4ADA4A4A4B39
:103F0000BA4B2A4C9A4C4D61828093070004232AB5
:103F1000F90093070002A30CF1029307000302DAF1
:103F2000230DF10236CE930B5002971A0000938AAC
:103F30006A46054C294B26848347040099C3639D38
:103F40007709B30C9440638E0C00E6862686CA85FA
:103F50004E85EFF07FE6FD576304F51AD256E696DC
:103F600036DA83470400638D0718FD579304140065
:103F700002D002D63ED202D4A301010682DC83C560
:103F8000040015465685EF009024138414008257D0
:103F900031E513F7070109C713070002A301E10682
:103FA00013F7870009C71307B002A301E10683C610
:103FB00004001307A002638BE602B25726848146F1
:103FC00025460347040093051400130707FD637497
:103FD000E6068DC63ED61DA00504B9BF3305554182
:103FE0003315AC00C98F3ED0A28451BF72479306EF
:103FF0004700184336CE634907023AD60347040008
:104000009307E002631FF704034714009307A0021D
:10401000631BF702F2470904138747009C433ACE1B
:1040200063C107023ED235A83307E04093E727007B
:104030003AD63ED0E1B7B387670385462E84BA9758
:1040400049B7FD57C5B7050402D2814681472546C9
:104050000347040093051400130707FD6378E60681
:10406000F1F2834504000D461715000013050533D2
:10407000EF00F01511CD97170000938727321D8DA3
:1040800093070004B397A700025505045D8D2AD05D
:104090008345040019461715000013056530930485
:1040A0001400230CB102EF00901225C597C7FFFF43
:1040B000938747F595E70257F2471377071009CF23
:1040C00091073ECED257D2973EDAB5B5B387670394
:1040D00085462E84BA97ADBF9D07E19BA107D5B752
:1040E000780897060000938666CD4A860C104E85A8
:1040F00097000000E7000000FD572A8AE314F5FC52
:104100008357C9007D5593F70704E39307DE5255A3
:10411000C5B3780897060000938646CA4A860C10F5
:104120004E852929D1BF1C46FD171CC663DA07003E
:10413000184E63C5E700A9476394F5006FF04FC6BA
:104140001C422E851387170018C22380B700828077
:10415000011122CC26CA4AC84EC652C406CE2A89AC
:10416000AE893284B304D6007D5A631494000145AD
:1041700011A8834504004E864A85EFF0DFFA050456
:10418000E31545FFF2406244D2444249B249224A13
:1041900005618280357122CD26CB4AC94EC706CF34
:1041A00052C556C35AC1DEDEE2DCE6DAAA89AE8425
:1041B0003289368409C51C4D99E3EFF0FF809717CB
:1041C000000093872719639CF40C83A4490083D7CC
:1041D000C400A18BFDC79C48EDC793070002A30450
:1041E000F1029307000302D22305F10222C6930BCA
:1041F0005002971A0000938AEA19054C294B4A8409
:104200008347040099C36391770FB30C2441638EF5
:104210000C00E6864A86A6854E85EFF07FF3FD57B3
:104220006306F51E9256E69636D283470400638FE6
:10423000071CFD571309140002C802CE3ECA02CC67
:10424000A309010482D483450900154656854127F8
:1042500013041900C24759E913F7070109C71307E7
:104260000002A309E10413F7870009C71307B0028E
:10427000A309E104834609001307A0026380E6084E
:10428000F2474A84814625460347040093051400FB
:10429000130707FD6379E60AB5CA3ECE85A89717CE
:1042A00000009387270D6395F40083A4890005B768
:1042B0009717000093870708E39BF4F083A4C900D5
:1042C00039B7A6854E85EFF0AFB901D97D55FA40D3
:1042D0006A44DA444A49BA492A4A9A4A0A4BF65B7E
:1042E000665CD65C0D618280050419BF33055541BB
:1042F0003315AC00C98F3EC82289B1B73247930647
:104300004700184336C6634907023ACE0347040004
:104310009307E002631FF704034714009307A0020A
:10432000631BF702B2470904138747009C433AC650
:1043300063C107023ECA35A83307E04093E7270070
:104340003ACE3EC8E1B7B387670385462E84BA9755
:1043500025BFFD57C5B7050402CA814681472546DA
:104360000347040093051400130707FD6376E60670
:10437000F1F2834504000D461715000013050502F0
:10438000B92511CD97170000938747011D8D93071D
:104390000004B397A700424505045D8D2AC88345F4
:1043A0000400194617150000130585FF13091400B2
:1043B0002304B102292D3DC197C7FFFF938787C40E
:1043C00095E74247B2471377071009CF91073EC6DA
:1043D0009257D2973ED225B5B387670385462E8480
:1043E000BA97BDBF9D07E19BA107D5B77800970697
:1043F0000000938626D626860C084E85970000007E
:10440000E7000000FD572A8AE314F5FC83D7C400B7
:1044100093F70704E39C07EA125555BD7800970609
:104420000000938626D326860C084E85012AD9BF24
:10443000797156CA9C49BA8A984522D426D24ECE62
:1044400052CC06D64AD05AC85EC6AA892E84B284F7
:10445000368A63D3E700BA879CC00347340419C384
:1044600085079CC01C4093F7070281C79C408907C1
:104470009CC00329040013796900631A0900130B17
:104480009401FD5B5C449840998F634CF9041C4097
:104490008346340493F70702B336D000A5EB130626
:1044A0003404D2854E85829AFD576303F5041C407F
:1044B00011469840998B544481446397C700B38454
:1044C000E64063D3040081441C4418486354F70059
:1044D000998FBE94014969047D5B63982405014569
:1044E00009A885465A86D2854E85829A631E750133
:1044F0007D55B250225492540259F249624AD24A2E
:10450000424BB24B456182800509ADBF3307D400F1
:1045100013060003A301C70403475404938716003E
:10452000A2978906A381E7049DBF85462286D2858E
:104530004E85829AE30E65FB050945B7797122D451
:1045400026D24AD04ECE06D652CC56CA5AC8B689C2
:1045500083C68501930790063289AA842E84138628
:104560003504638DF60263E2D706930780056388FE
:10457000F61863EDD7006381062293073004638E3B
:10458000F60A930A24042301D404C9A09307300631
:104590006385F60A93074006E395F6FE1C40084340
:1045A00093F6070893054500C5C61C410CC363D8A4
:1045B00007001307D002B307F040A301E4049716E5
:1045C0000000938666DE29476DA893070007638481
:1045D000F61663E5D7029307E006638BF618930798
:1045E000F006E390F6FA0C401C4313F80508138517
:1045F00047006307080608C39C438DA8930750072C
:10460000E383F6FE93078007638BF6129307300768
:10461000E399F6F61C43D04181459386470014C3C5
:1046200083AA07005685652601C53305554148C054
:104630005C401CC8A301040471A81C43930A240411
:10464000938647009C4314C32301F4048547D5B7E0
:1046500093F607041C410CC3B9DAC207C18781BFB6
:1046600093F5050408C3C9D983D707001307F006DB
:104670006388E60E97160000938606D32947A301A8
:1046800004044C400CC463C5050008406D9908C083
:1046900099E3B28A91CDB28AB3F5E702FD1AB695D5
:1046A00083C505002380BA00B3D5E70263F0E70CA9
:1046B000A147631EF7001C40858B91CB58401C48D6
:1046C00063C7E70093070003A38FFAFEFD1A3306C2
:1046D000564110C84E87CA867000A2852685EFF025
:1046E0003FD57D5A631E450B7D55B25022549254DE
:1046F0000259F249624AD24A424B45618280A38202
:10470000D50497160000938626CA0C40084313F878
:1047100005081C411105630D080208C313F71500B5
:1047200001C793E505020CC04147B1FB0C4093F56E
:10473000F5FD0CC0A9B79C4193E707029CC1930704
:104740008007A302F40497160000938626C775BF5E
:1047500013F8050408C3E30308FCC207C1837DBF47
:1047600097160000938646C4214711BFAE872DB728
:1047700094411C43CC4913F806081385470063068F
:10478000080008C39C438CC301A808C393F6060421
:104790009C43F5DA2390B70023280400B28A1DBF9A
:1047A00014485686CA8526858299E30F45F31C4036
:1047B000898B8DE7B2474844E359F5F23E8535B71A
:1047C00085465686CA8526858299E30F65F1050AD6
:1047D0005C443247998FE345FAFEE9BF014A930AE8
:1047E00094017D5BF5B7411122C42A842E8597F789
:1047F000FF1F23AF079606C6EFD09FCAFD57631968
:10480000F50097F7FF1F9387A7969C4391C31CC0A1
:10481000B240224441018280411122C42E848395FA
:10482000E50006C60524634905007C48AA977CC8B4
:10483000B2402244410182808357C4007D777D17B6
:10484000F98F2316F400EDB783D7C500011122CCF0
:1048500026CA4AC84EC606CE93F70710AA842E84ED
:104860003289B68991C78395E5008946014635228C
:104870008357C4007D777D17F98F2316F4008315C5
:10488000E4006244F240CE864A86B2494249268517
:10489000D24405613DA8411122C42E848395E500D0
:1048A00006C6E528FD570357C400631BF500FD77D6
:1048B000FD17F98F2316F400B24022444101828093
:1048C0008567D98F2316F40068C8FDB78395E50086
:1048D00025A8411122C42A842E85B285368697F7F1
:1048E000FF1F23A7078806C6EFD0FFB7FD57631940
:1048F000F50097F7FF1F9387A7879C4391C31CC0C0
:10490000B240224441018280411122C42A842E8572
:1049100097F7FF1F23AE078406C68D2AFD5763193C
:10492000F50097F7FF1F9387A7849C4391C31CC092
:10493000B240224441018280411122C42A842E8542
:10494000B28597F7FF1F23A5078206C6812AFD5768
:104950006319F50097F7FF1F938787819C4391C3E5
:104960001CC0B240224441018280411122C42A84E9
:104970002E8597E7FF1F23AD077E06C6052AFD5744
:104980006319F50097E7FF1F9387877E9C4391C3C8
:104990001CC0B240224441018280411122C42A84B9
:1049A0002E85B285368697E7FF1F23A3077C06C6B0
:1049B0003122FD576319F50097E7FF1F9387477B67
:1049C0009C4391C31CC0B24022444101828093F5B4
:1049D000F50F2A966314C5000145828083470500C0
:1049E000E38DB7FE0505FDB78280828081E5B28543
:1049F0006FF0EFAE011122CC06CE26CA4AC84EC6D1
:104A0000328401EEEFF02FA30149F24062444A855F
:104A1000D2444249B24905618280AE84AA89A9285C
:104A20002689E37485FEA2854E85EFF04FAB2A8977
:104A300069DDA6852286EFE07F8DA6854E85EFF0A5
:104A40008F9FE1B7411122C42A842E85B285368614
:104A500097E7FF1F23AE077006C68D28FD57631921
:104A6000F50097E7FF1F9387A7709C4391C31CC075
:104A7000B24022444101828083A7C5FF1385C7FF4E
:104A800063D50700AA959C413E95828093078005D7
:104A900017E7FF1F232EF76C7D5582809307800553
:104AA00017E7FF1F2326F76C7D558280930780054B
:104AB00017E7FF1F232EF76A0145828093078005C1
:104AC00017E7FF1F2326F76A7D558280930780052D
:104AD00017E7FF1F232EF7687D55828000000038FE
:104AE0000000804100003443252E662C252E662CC4
:104AF000252E6600000000000000000000000000FD
:104B000000000000000000F800000000000000337A
:104B10003000000000100C06100C06000000000021
:104B20000000000040C07840C0784000043F04040A
:104B30003F040400007088FC08300000001820FFCB
:104B4000211E0000F008F000E018000000211C0306
:104B50001E211E0000F00888700000001E21232482
:104B60001927211010160E000000000000000000A0
:104B700000000000000000E0180402000000000730
:104B80001820400000020418E00000000040201837
:104B900007000000404080F0804040000202010F0A
:104BA00001020200000000F0000000000101011FEE
:104BB00001010100000000000000000080B0700052
:104BC00000000000000000000000000000010101E2
:104BD0000101010100000000000000000030300071
:104BE000000000000000000080601804006018064B
:104BF0000100000000E010080810E000000F102085
:104C000020100F00001010F8000000000020203FCE
:104C10002020000000700808088870000030282458
:104C200022213000003008888848300000182020F9
:104C300020110E000000C02010F80000000704241E
:104C4000243F240000F80888880808000019212063
:104C500020110E0000E0108888180000000F1120BD
:104C600020110E0000380808C83808000000003F76
:104C7000000000000070880808887000001C2221D5
:104C800021221C0000E010080810E0000000312282
:104C900022110F00000000C0C00000000000003022
:104CA0003000000000000080000000000000806074
:104CB00000000000000080402010080000010204F5
:104CC00008102000404040404040400004040404DC
:104CD0000404040000081020408000000020100898
:104CE00004020100007048080808F00000000030CD
:104CF00036010000C030C828E810E000071827245B
:104D000023140B000000C038E0000000203C230208
:104D10000227382008F8888888700000203F20206B
:104D200020110E00C030080808083800071820209D
:104D30002010080008F808080810E000203F202094
:104D400020100F0008F88888E8081000203F202075
:104D50002320180008F88888E8081000203F200069
:104D600003000000C03008080838000007182020A1
:104D7000221E020008F808000008F808203F210160
:104D800001213F20000808F8080800000020203F0B
:104D90002020000000000808F8080800C08080807B
:104DA0007F00000008F888C028180800203F200174
:104DB0002638200008F8080000000000203F2020CE
:104DC0002020300008F8F800F8F80800203F003FE5
:104DD000003F200008F830C00008F808203F2000FD
:104DE00007183F00E01008080810E0000F1020200E
:104DF00020100F0008F808080808F000203F2101E3
:104E000001010000E01008080810E0000F18242439
:104E100038504F0008F8888888887000203F2000AC
:104E2000030C302000708808080838000038202162
:104E300021221C00180808F8080818000000203F6C
:104E40002000000008F808000008F808001F2020D3
:104E500020201F000878880000C8380800000738A4
:104E60000E010000F80800F80008F800033C0700F5
:104E7000073C0300081868808068180820302C035D
:104E8000032C30200838C800C83808000000203F34
:104E90002000000010080808C83808002038262123
:104EA00020201800000000FE020202000000007F27
:104EB00040404000000C30C0000000000000000135
:104EC0000638C00000020202FE0000000040404020
:104ED0007F00000000000402020204000000000045
:104EE00000000000000000000000000080808080C2
:104EF00080808080000202040000000000000000AA
:104F00000000000000008080808000000019242242
:104F100022223F2008F8008080000000003F11207E
:104F200020110E000000008080800000000E112083
:104F300020201100000000808088F800000E112061
:104F400020103F200000808080800000001F22226F
:104F500022221300008080F0888888180020203FDB
:104F6000202000000000808080808000006B9494EE
:104F70009493600008F8008080800000203F2100AA
:104F800000203F2000809898000000000020203F73
:104F900020200000000000809898000000C0808061
:104FA000807F000008F8000080808000203F2402FD
:104FB0002D302000000808F8000000000020203FED
:104FC000202000008080808080808000203F2000A2
:104FD0003F20003F8080008080800000203F210033
:104FE00000203F200000808080800000001F2020E3
:104FF00020201F00808000808000000080FFA12012
:1050000020110E000000008080808000000E112022
:1050100020A0FF80808080008080800020203F21B1
:105020002000010000008080808080000033242464
:1050300024241900008080E0808000000000001F10
:10504000202000008080000000808000001F2020C1
:1050500020103F20808080000080808000010E3082
:105060000806010080800080008080800F300C03E3
:105070000C300F0000808000808080000020312EE6
:105080000E312000808080000080808080818E70C2
:105090001806010000808080808080000021302C74
:1050A0002221300000000000807C0202000000008D
:1050B000003F404000000000FF0000000000000032
:1050C000FF0000000002027C800000000040403F22
:1050D00000000000000601010202040400000000BC
:1050E0000000000061736466670000007363616E16
:1050F0003D256C752076616C69645F62696E733DF5
:105100002575206261645F6E6F6465733D256C7503
:105110002064726F705F62797465733D256C750DE4
:105120000A00000062696E3D257520616E676C653E
:105130003D25752E257520646973743D2575207194
:105140003D25750D0A0000002D2D2D2D2D2D2D2D09
:105150002D2D2D2D20636972636C6520646F6E6543
:10516000202D2D2D2D2D2D2D2D2D2D2D2D0D0000F6
:105170007ED8FFFFA4D7FFFF78D8FFFFACD7FFFF93
:1051800078D8FFFF72D7FFFF78D8FFFFACD7FFFFBB
:10519000A4D7FFFFA4D7FFFF72D7FFFFACD7FFFF55
:1051A000B2D7FFFFB2D7FFFFB2D7FFFF72D7FFFF23
:1051B00064D7FFFF64D7FFFF38D8FFFF14D9FFFF84
:1051C00038D8FFFF32D7FFFF38D8FFFF14D9FFFFD1
:1051D00064D7FFFF64D7FFFF32D7FFFF14D9FFFF6B
:1051E00072D7FFFF72D7FFFF72D7FFFF32D7FFFFE3
:1051F00076DAFFFFC8D9FFFFC8D9FFFFC6D9FFFF86
:10520000CCD9FFFFCCD9FFFF9CD9FFFFC6D9FFFF48
:10521000CCD9FFFF9CD9FFFFCCD9FFFFC6D9FFFF38
:1052200064DAFFFF64DAFFFF64DAFFFF9CD9FFFF57
:10523000000102020303030304040404040404043D
:10524000050505050505050505050505050505050E
:1052500006060606060606060606060606060606EE
:1052600006060606060606060606060606060606DE
:1052700007070707070707070707070707070707BE
:1052800007070707070707070707070707070707AE
:10529000070707070707070707070707070707079E
:1052A000070707070707070707070707070707078E
:1052B000080808080808080808080808080808086E
:1052C000080808080808080808080808080808085E
:1052D000080808080808080808080808080808084E
:1052E000080808080808080808080808080808083E
:1052F000080808080808080808080808080808082E
:10530000080808080808080808080808080808081D
:10531000080808080808080808080808080808080D
:1053200008080808080808080808080808080808FD
:10533000000000000000000000000000000000006D
:10534000000000000000000000000000000000005D
:10535000000000000000000000000000000000004D
:10536000000000000000000000000000000000003D
:10537000000000000000000000000000000000002D
:10538000000000000000000000000000000000001D
:10539000232D302B20000000686C4C0065666745AB
:1053A00046470000303132333435363738394142E0
:1053B000434445460000000030313233343536373F
:0C53C0003839616263646566000000001B
:1053CC0000000000000000000102030406070809A9
:1053DC00000000000102030401020304060708098F
:1053EC0000000000505300007053000030530000C8
:1053FC0000000000000000000000000000000000A1
:10540C000000000000000000000000000000000090
:10541C000000000000000000000000000000000080
:10542C000000000000000000000000000000000070
:10543C000000000000000000000000000000000060
:10544C0000A24A040204060870310020200000204B
:10545C00A55A05000040810020000020000000003B
:00000001FF
